:020000040000FA
:100000000C944E010C947F010C947F010C947F01A1
:100010000C947F010C947F010C947F010C947F0160
:100020000C947F010C947F010C947F010C947F0150
:100030000C947F010C947F010C947F010C947F0140
:100040000C947F010C947F010C947F010C947F0130
:100050000C947F010C947F010C947F010C94930805
:100060000C947F010C947F010C947F010C947F0110
:100070000C947F010C947F010C947F010C947F0100
:100080000C947F010C947F010C947F010C947F01F0
:100090000C947F010C947F010C947F010C94DD087B
:1000A0000C947F010C947F010C947F010C947F01D0
:1000B0000C947F010C947F010C947F010C947F01C0
:1000C0000C947F010C947F010C947F010C947F01B0
:1000D0000C947F010C947F010C947F010C947F01A0
:1000E0000C947F010C945A030C94F6030C94EB01CE
:1000F0000C944B060C94D9040C94CC010C94010A7A
:100100000C94FF010C9403020C94F9010C94120658
:100110000C940C020C94CB0C0C944A060C94D8074B
:100120000C947F030C94E1010C94F5010C940D02E6
:100130000C9431060C945D030C94F1010C94E203D1
:100140000C94B3030C94DE010C946C030C945B03CD
:100150000C9486030C9481010C94E7010C94D20159
:100160000C9407020C94D6010C94DA010C94DA0476
:100170000C9411020C945C03000021002400270061
:100180002A002D00300033000101000004010701A6
:100190000A0100002200250028002B002E0031005B
:1001A000340002010000050108010B0100002000DD
:1001B0002300260029002C002F003200000100003F
:1001C00003010601090105050505070508080808DA
:1001D000020202020A0A08080404040401010101DF
:1001E00001010101030303030303030304070707DA
:1001F0000C0C0C0C0C0C0C0C02020202060606067F
:10020000060606060B0B0B0B0B0B0B0B010210204B
:10021000200808102040102040800201020108043C
:1002200002010102040810204080804020100804D0
:100230000201800402018040201008040201080429
:10024000020101020408102040800102040810206D
:10025000408000000A0B02090C0D0E080703040180
:10026000000000000000000000000000000000008E
:10027000000000000000000000000000000012115B
:10028000100000000000000000000000000000005E
:100290000000000000000000010ACB0C11241FBE6A
:1002A000CFEFD1E2DEBFCDBF00E00CBF23E0A8E678
:1002B000B2E001C01D92A537B207E1F712E0A0E05D
:1002C000B2E0E8E6FEE100E00BBF02C007900D924D
:1002D000A836B107D9F711E0CDE4D1E000E006C0BF
:1002E00021970109802FFE010E94F60CCC34D10722
:1002F00080E00807A9F70E949D0A0C94220F0C9435
:100300000000AF92BF92CF92DF92EF92FF920F93D5
:100310001F93CF93DF936C017B018B01040F151F9B
:10032000EB015E01AE18BF08C017D10759F0699103
:10033000D601ED91FC910190F081E02DC601199557
:10034000892B79F7C501DF91CF911F910F91FF9014
:10035000EF90DF90CF90BF90AF90089581508231A1
:1003600008F05AC0E82FF0E08827E654FE4F8F4F80
:100370000C94F60CDA01DE01CC01D201D6010C029C
:10038000E101E701EB01F101F501F901FF010302D0
:100390000C0207020D021102809180008F7780937A
:1003A00080000895809180008F7DF9CF809180003A
:1003B000877FF5CF84B58F7784BD089584B58F7D11
:1003C000FBCF8091B0008F778093B000089580912B
:1003D000B0008F7DF9CF809190008F77809390004F
:1003E0000895809190008F7DF9CF80919000877F54
:1003F000F5CF8091A0008F778093A0000895809121
:10040000A0008F7DF9CF8091A000877FF5CF8091EC
:1004100020018F77809320010895809120018F7DA6
:10042000F9CF80912001877FF5CFCF93DF93282FDD
:1004300030E0F901EE5AFD4F8491F901E45FFD4F80
:10044000D491F901EA53FE4FC491CC23A1F081115C
:100450000E94AE01EC2FF0E0EE0FFF1FE455FE4FBF
:10046000A591B491EC91ED2381E090E009F480E056
:10047000DF91CF91089580E090E0FACF1F93CF9362
:10048000DF93282F30E0F901EE5AFD4F8491F901F6
:10049000E45FFD4FD491F901EA53FE4FC491CC23A0
:1004A000A9F0162F81110E94AE01EC2FF0E0EE0FA3
:1004B000FF1FEE56FE4FA591B4918FB7F894EC91C3
:1004C000111108C0D095DE23DC938FBFDF91CF914F
:1004D0001F910895DE2BF8CFCF93DF9390E0FC01BE
:1004E000E45FFD4F24918A539E4FFC018491882341
:1004F000D1F090E0880F991FFC01E858FE4FA591BC
:10050000B491FC01EE56FE4FC591D49161110EC01D
:100510009FB7F8948C91E22FE0958E238C932881DD
:10052000E223E8839FBFDF91CF9108958FB7F894BE
:10053000EC91E22BEC938FBFF6CF3FB7F89480910C
:10054000270390912803A0912903B0912A0326B58F
:10055000A89B05C02F3F19F00196A11DB11D3FBFFB
:10056000BA2FA92F982F8827BC01CD01620F711DCA
:10057000811D911D42E0660F771F881F991F4A95C4
:10058000D1F708958F929F92AF92BF92CF92DF9250
:10059000EF92FF924B015C010E949D026B017C0176
:1005A0000E949D026C197D098E099F09683E734067
:1005B00081059105A8F321E0821A9108A108B108EC
:1005C00088EEC80E83E0D81EE11CF11C8114910452
:1005D000A104B10429F7FF90EF90DF90CF90BF9076
:1005E000AF909F908F9008952091D602260F3327C9
:1005F000331F21323105ECF42091FC02FC0190E024
:1006000080E0243069F082E00895A091D602219123
:10061000AC014C545D4FA40FB52FB11D2C93019626
:10062000861798F38091D602680F6093D60280E017
:10063000089581E008951092FC0281E08093FE020B
:100640001092FD0261E084E10E943E0261E085E1DA
:100650000E943E02E9EBF0E080818E7F8083808102
:100660008D7F808388E48093B80085E48093BC000C
:100670000895CF93DF9391E09093B3028823B9F06C
:10068000C091B800D091BA008091BC008A7B809361
:10069000BC0060E084E10E943E0260E085E10E94CF
:1006A0003E020E941B03D093BA00C093B800DF91B2
:1006B000CF910895089508950895E091AB02809137
:1006C000AA02E81730F4F0E0E657FD4F808190E091
:1006D00008958FEF9FEF08959091AB028091AA0249
:1006E0002FEF3FEF981748F4E92FF0E0E657FD4F62
:1006F000208130E09F5F9093AB02C9010895809103
:10070000AA029091AB02891B990B0895CF92DF92B8
:10071000EF92FF920F931F93CF93DF937C01CB0156
:100720008A0120918902222389F0EB016B01C40E1A
:10073000D51ECC15DD0569F06991D701ED91FC91CD
:100740000190F081E02DC7011995F3CF642F0E942D
:10075000F402C801DF91CF911F910F91FF90EF90AC
:10076000DF90CF900895CF93DF931F92CDB7DEB780
:100770006983209189022223F9F02091AC02203272
:1007800058F021E030E0FC013383228390E080E0E8
:100790000F90DF91CF9108958091AD02E82FF0E0A6
:1007A000E759FD4F998190838F5F8093AD028093CD
:1007B000AC0281E090E0ECCF61E0CE0101960E94B6
:1007C000F402F7CF21E001C0220F6A95EAF7DC01BD
:1007D0001C962C931C971A965C934E931997ED9147
:1007E000FC910484F585E02D60E01994DC01ED9125
:1007F000FC910684F785E02D41E0199581E090E0B9
:100800000895DC01ED91FC910684F785E02D40E030
:1008100019940F931F93CF93DF9300D000D01F92B2
:100820001F92CDB7DEB7009106021091070220910A
:100830000802309109020D831E832F8338870091AF
:100840000A0210910B0220910C0230910D020983D3
:100850001A832B833C8390915903691710F06FEF33
:10086000690F262F30E040915A032C0F3D1FF901EC
:10087000403199F4943089F46181680F606882E5B1
:1008800093E028960FB6F894DEBF0FBECDBFDF9180
:10089000CF911F910F910C9401046581EECF0F93BE
:1008A0001F93CF93DF93EC01423018F08C81886066
:1008B0008C834F836887222329F0413019F48C817F
:1008C00084608C8364E670E080E090E00E94C20265
:1008D0006C8164FD55C0E881F9810684F785E02DBF
:1008E00042E063E0CE0119950BE416E4C8010197DC
:1008F000F1F7E881F9810684F785E02D42E063E0B5
:10090000CE011995C8010197F1F7E881F9810684B4
:10091000F785E02D42E063E0CE01199583E592E092
:100920000197F1F7E881F9810684F785E02D42E02F
:1009300062E0CE0119956C816062CE010E940104D3
:1009400084E08D836CE0CE010E94010461E0CE0161
:100950000E9401048BE39FE10197F1F782E08E830F
:1009600066E0CE010E940104E881F9810484F585E6
:10097000E02D6FEFCE01DF91CF911F910F91199470
:100980006062CE010E9401048BE496E40197F1F7C6
:100990006C816062CE010E94010483E592E00197C0
:1009A000F1F76C816062CE010E940104C4CF08950A
:1009B0000895089590E080E00895CF92DF92EF923D
:1009C000FF920F931F93CF93DF93FC012381222388
:1009D00009F4F1C0262F6181609562236083C28192
:1009E00081E080938902C09368021092AD02109258
:1009F000AC0289E393E00E94B303D091AC0221E002
:100A0000D13208F09AC00E949D026B017C01809156
:100A1000FC0281116CC082E08093FC0281E0809333
:100A2000FE028FEF8093FB0210922003D0931F03EE
:100A3000A9E6B2E0EFEFF2E080E0D81394C01092A4
:100A4000210380912103CC0FC82BC09321038091F7
:100A5000FD02813009F08BC01092FD020E949D02C0
:100A60006B017C01809121038093BB008091AF02D8
:100A70009091B002A091B102B091B202892B8A2B61
:100A80008B2BA1F00E949D020091AF021091B00249
:100A90002091B1023091B2026C197D098E099F0933
:100AA000061717072807390708F442C08091BC00D1
:100AB00083FDD8CF85EC8093BC000E949D026B0122
:100AC0007C018091FC02823009F453C08091FB02CA
:100AD00020E08F3F91F18091FB0222E0803269F1AA
:100AE0008091FB0224E0803341F523E026C0809111
:100AF000AF029091B002A091B102B091B202892BE5
:100B00008A2B8B2B09F483CF0E949D020091AF02A8
:100B10001091B0022091B1023091B2026C197D099E
:100B20008E099F09061717072807390708F06FCFA6
:100B30008091AE020E94390325E01092AD0210921E
:100B4000AC021092890230E081E090E0232B11F09A
:100B500090E080E0DF91CF911F910F91FF90EF9097
:100B6000DF90CF9008959D9191938F5F66CF85EE32
:100B7000A2CF8091AF029091B002A091B102B0914A
:100B8000B202892B8A2B8B2B09F49BCF0E949D02EA
:100B90000091AF021091B0022091B1023091B202E7
:100BA0006C197D098E099F09061717072807390751
:100BB00008F087CFBDCF30E020E0C6CFEF92FF92A4
:100BC0000F931F93CF938C01FC0184E0C0E0262F8C
:100BD00030E060FF02C09589C92BB9017595679512
:100BE000815031968111F3CF413011F4F8014489DD
:100BF000F8016585C62BC42B7801FEE0EF0EF11CD1
:100C0000F80162896C2BC7010E94DD04F80162893A
:100C100060956C23C701CF911F910F91FF90EF90CA
:100C20000C94DD040F931F93CF93DF93062F0F7067
:100C3000423041F440E0602FDF91CF911F910F913E
:100C40000C94DE05142FEC0170E084E07595679537
:100C50008A95E1F7CE010E94DE05412F602FCE017B
:100C6000EBCFFC0184858823A1F0218532852115F5
:100C7000310521F4611107C0158606C02130310508
:100C8000D9F76111F9CF85876585CF010E960C9450
:100C9000DD04089508954F925F926F927F928F9234
:100CA0009F92AF92BF92EF92FF920F931F93CF93B9
:100CB000DF93EC01062FF42EE22E8B85888B1092A9
:100CC000AB021092AA021092AD021092AC020E94E6
:100CD0001B038AE593E09093D5028093D4028BE5C1
:100CE00093E09093D9028093D80218890E949D02C4
:100CF0004B015C018091FC02811164C081E0809312
:100D0000FC028093FE029FEF9093FB02109220035F
:100D100010921F038093210380912103110F182B40
:100D2000109321038091FD02813009F09DC0109243
:100D3000FD020E949D024B015C0180912103809382
:100D4000BB008091AF029091B002A091B102B0912E
:100D5000B202892B8A2B8B2BA1F00E949D0240901E
:100D6000AF025090B0026090B1027090B202681968
:100D700079098A099B09461657066806790608F418
:100D800042C08091BC0083FDD8CF85EC8093BC002D
:100D90000E949D024B015C018091FC02813009F4AC
:100DA00065C080912003811183C080912003EFEF03
:100DB000F2E0AAE8B2E090E0981751F121912D936A
:100DC0009F5FFACF8091AF029091B002A091B102E3
:100DD000B091B202892B8A2B8B2B09F48BCF0E9406
:100DE0009D024090AF025090B0026090B1027090AE
:100DF000B202681979098A099B09461657066806DE
:100E0000790608F077CF8091AE020E94390380E026
:100E10001092AB028093AA0291E0811101C090E090
:100E2000998B89E393E00E946C038E8789898823DC
:100E300039F01F861C8260E0CE010E960E94DD0410
:100E40002E2D4F2D602FCE01DF91CF911F910F914D
:100E5000FF90EF90BF90AF909F908F907F906F909A
:100E60005F904F900C944F0485EE90CF8091AF022D
:100E70009091B002A091B102B091B202892B8A2B5D
:100E80008B2B09F489CF0E949D024090AF025090B5
:100E9000B0026090B1027090B202681979098A09B3
:100EA0009B09461657066806790608F075CFABCF42
:100EB00081E07DCF8F929F92AF92BF920F931F934D
:100EC000CF93DF93CDB7DEB7A1970FB6F894DEBF0F
:100ED0000FBECDBF19A2423008F44AE08E010F5D6B
:100EE0001F4F842E912CB12CA12CA50194010E949E
:100EF000D40CE62FB901CA01EA3044F5E05DD8010F
:100F0000EE938D01232B242B252B79F790E080E0A5
:100F1000109769F0FD0101900020E9F73197AF01CA
:100F20004A1B5B0BBD0182E593E00E948101A19603
:100F30000FB6F894DEBF0FBECDBFDF91CF911F91EA
:100F40000F91BF90AF909F908F900895E95CD7CF9D
:100F5000CF92DF92EF92FF92CF93DF936C01990FC4
:100F6000EE08FF08F7FE19C06DE282E593E00E94EB
:100F7000F603EC0166277727CB016C197D098E09F2
:100F80009F094AE00E945A078C0F9D1FDF91CF9165
:100F9000FF90EF90DF90CF9008954AE0C701B6012F
:100FA000DF91CF91FF90EF90DF90CF900C945A0794
:100FB0000C949A0DCF93DF93EC0180916B03909189
:100FC0006C03009759F020916D0330916E032C173C
:100FD0003D0720F081E0DF91CF910895BE016F5F62
:100FE0007F4F0E94230E009789F090936C038093AB
:100FF0006B03D0936E03C0936D0320916F03309108
:101000007003232B39F7FC011082E4CF80E0E3CF9B
:101010000F931F93CF93DF938C01EC010990002075
:10102000E9F72197C81BD90BCE010E94DA0720915E
:101030006B0330916C03811117C02115310519F034
:10104000C9010E949A0D10926C0310926B031092CA
:10105000700310926F0310926E0310926D03DF9174
:10106000CF911F910F910895D0937003C0936F0398
:10107000B801C901DF91CF911F910F910C941B0F03
:1010800020916F0330917003232B39F421E0FC0190
:101090008081882361F020E00AC0BC0180916B034D
:1010A00090916C030E94120F21E0892BA1F7822FEF
:1010B00008950E94040F85ED8093BC008091AF02DB
:1010C0009091B002A091B102B091B2020796A11D19
:1010D000B11D23E0B695A795979587952A95D1F7E9
:1010E0002091BC0024FD03C01092FC0208954091A1
:1010F000AF025091B0026091B1027091B202452BE3
:10110000462B472B69F30097A105B10541F02AE270
:101110002A95F1F700C00197A109B109E1CF8091AB
:10112000AE020C9439031F920F920FB60F92112446
:101130002F933F938F939F93AF93BF9380912303FC
:1011400090912403A0912503B091260330912203AE
:1011500023E0230F2D3758F50196A11DB11D2093D3
:1011600022038093230390932403A0932503B09339
:1011700026038091270390912803A0912903B09121
:101180002A030196A11DB11D809327039093280384
:10119000A0932903B0932A03BF91AF919F918F91A0
:1011A0003F912F910F900FBE0F901F90189526E83A
:1011B000230F0296A11DB11DD2CF1F920F920FB621
:1011C0000F9211240BB60F922F933F934F935F937F
:1011D0006F937F938F939F93AF93BF93EF93FF93FF
:1011E0008091B900887F803609F44DC008F040C076
:1011F000883209F4A9C028F5803109F49DC0C8F4EB
:10120000882309F4FBC0883009F496C0FF91EF9160
:10121000BF91AF919F918F917F916F915F914F910E
:101220003F912F910F900BBE0F900FBE0F901F900C
:101230001895883109F488C0803241F78093FB0209
:1012400014C0803409F49DC040F48033B9F388336E
:10125000E9F68093FB0285ECB0C0803509F485C0C7
:10126000883509F496C0883489F60E945B08CECF91
:10127000883909F48CC038F5883729F050F488365D
:1012800011F0803719F683E08093FC021092FA0285
:1012900057C0883809F47BC0803919F0803809F0CC
:1012A000B5CF8091FA02803208F071C0E091FA0265
:1012B00081E08E0F8093FA028091BB00F0E0E6524D
:1012C000FD4F80833DC0803B39F0E0F4803A09F463
:1012D00079C0883A09F09ACF84E08093FC0210929A
:1012E000D7021092D602E091D402F091D50219955E
:1012F0008091D60281110FC081E08093D6021092B6
:10130000B40209C0803C09F4A6CF883C09F4A3CFFD
:10131000883B09F07BCFE091D70281E08E0F80936C
:10132000D702F0E0EC54FD4F80818093BB00909198
:10133000D7028091D60229C0809121038093BB00FF
:1013400085EC8093BC0062CF9091200380911F03B5
:10135000981758F5E091200381E08E0F80932003C9
:10136000F0E0E150FD4F8081E9CFE091200381E082
:101370008E0F809320038091BB00F0E0E150FD4F81
:1013800080839091200380911F039817C8F285E80D
:10139000D8CFE091200381E08E0F809320038091CD
:1013A000BB00F0E0E150FD4F80838091FE0281118F
:1013B0005CCF81E08093FD0284EA8093BC001092B0
:1013C000FC0224CF85EC8093BC001092FC0280913B
:1013D000FA02803230F4E091FA02F0E0E652FD4F7A
:1013E00010826091FA0270E0E091D802F091D90287
:1013F0008AED92E019951092FA0208CF1092FB0242
:1014000034CF10923C0310923B0388EE93E0A0E0AF
:10141000B0E080933D0390933E03A0933F03B093CD
:10142000400382E192E090933A0380933903109253
:101430006C0310926B0310926E0310926D03109266
:10144000700310926F0390E080E00E94DA07209111
:101450006B0330916C03811166C02115310519F0C1
:10146000C9010E949A0D10926C0310926B031092A6
:10147000700310926F0310926E0310926D0310921E
:101480005503109254038CE292E09093530380939F
:101490005203109262038FEF8093610310926003F6
:1014A0001092630380E280935D0310925E031092BA
:1014B0005F0310925C0310925B0394E090936403CB
:1014C00092E09093650391E09093660390E190938E
:1014D00067038093680380E48093690380E88093C6
:1014E0006A0350E040E063E082E593E00E94E2039B
:1014F00084E292E0909346038093450310924A035E
:1015000010924B0310924C0310924D0380E090E038
:10151000A0E8BFE380934E0390934F03A093500342
:10152000B093510308951092700310926F036CE40E
:1015300072E0C9010E941B0FA2CF789484B582602B
:1015400084BD84B5816084BD85B5826085BD85B567
:10155000816085BD80916E00816080936E001092E5
:101560008100809181008260809381008091810060
:1015700081608093810080918000816080938000F1
:101580008091B10084608093B1008091B00081604F
:101590008093B0008091910082608093910080914F
:1015A0009100816080939100809190008160809390
:1015B00090008091A10082608093A1008091A100A1
:1015C00081608093A1008091A00081608093A00041
:1015D00080912101826080932101809121018160AD
:1015E000809321018091200181608093200180916E
:1015F0007A00846080937A0080917A008260809380
:101600007A0080917A00816080937A0080917A00DC
:10161000806880937A001092C10020E044E060E18D
:1016200082E593E00E944B066FEF82E593E00E9413
:10163000310661E086E10E946C0261E087E10E9470
:101640006C0261E088E10E946C02C9E160E08C2FCD
:101650000E946C02CF5FCF31C9F7DFE161E08D2FCF
:101660000E946C02DF5FD432C9F761E08C2F0E94C8
:101670003E02CF5FC432C9F7C0E0D0E080913703AB
:1016800090913803893C9105CCF18091350390917C
:1016900036030196909336038093350310923803F6
:1016A0001092370360E080E00E94090444E050E0BB
:1016B0006CE372E082E593E00E94810160E085E0E6
:1016C0000E94090480913703909138030E94A80773
:1016D00061E080E00E94090446E050E061E472E0CD
:1016E00082E593E00E94810161E089E00E940904A3
:1016F00080913503909136030E94A80789E10E94EA
:101700001502019709F0B9C088E492E00E94080828
:1017100080913303909134030A969093340380931D
:10172000330388E492E00E944008882309F4F6C05D
:1017300061E086E10E943E0260E087E10E943E0295
:1017400060E088E10E943E0268EE73E080E090E095
:101750000E94C20260E086E10E943E0260E087E1F2
:101760000E943E0260E088E10E943E028CE492E02A
:101770000E9408088091330390913403843F914084
:1017800091F4109234031092330360E08FE10E94D1
:101790006C0260E177E280E090E00E94C20261E0CA
:1017A0008FE10E946C028091310390913203843F5B
:1017B000914091F4109232031092310360E080E284
:1017C0000E946C0260E177E280E090E00E94C20239
:1017D00061E080E20E946C0280912F0390913003BF
:1017E0008639910591F41092300310922F0360E036
:1017F00081E20E946C0260E177E280E090E00E946A
:10180000C20261E081E20E946C0280912D039091FE
:101810002E038639910591F410922E0310922D0318
:1018200060E082E20E946C0260E177E280E090E09A
:101830000E94C20261E082E20E946C0280912B034E
:1018400090912C038436910591F410922C03109200
:101850002B0360E083E20E946C0260E177E280E0AB
:1018600090E00E94C20261E083E20E946C02209735
:1018700009F404CF0E94000001CF8AE10E94150202
:10188000019771F48DE492E00E9408088091310381
:10189000909132030A96909332038093310341CFA3
:1018A0008BE10E941502019771F483E592E00E949A
:1018B000080880912F03909130030A96909330038B
:1018C00080932F032ECF8DE10E941502019771F4B2
:1018D00089E592E00E94080880912D0390912E03E3
:1018E0000A9690932E0380932D031BCF8EE10E94C6
:1018F0001502019771F480E692E00E940808809139
:101900002B0390912C030A9690932C0380932B0326
:1019100008CF8CE492E00E94080803CF8DE492E0A7
:101920000E944008882331F060E086E10E943E0278
:1019300061E003CF83E592E00E94400861E08111FD
:10194000F4CF89E592E00E94400860E0811107C071
:1019500080E692E00E944008882351F061E086E131
:101960000E943E0260E087E10E943E0261E0E9CE13
:1019700064E670E080E090E00E94C20260E086E1F0
:101980000E943E0260E087E10E943E0260E088E142
:101990000E943E02EFCE80916B0390916C03009702
:1019A00011F00C949A0D0895A1E21A2EAA1BBB1BEC
:1019B000FD010DC0AA1FBB1FEE1FFF1FA217B3071B
:1019C000E407F50720F0A21BB30BE40BF50B661F31
:1019D000771F881F991F1A9469F7609570958095F5
:1019E00090959B01AC01BD01CF010895EE0FFF1F43
:1019F000881F8BBF0790F691E02D19940F931F93CA
:101A0000CF93DF938230910510F482E090E0E09173
:101A10007303F091740330E020E0B0E0A0E0309771
:101A200099F42115310509F44AC0281B390B2430DB
:101A30003105D8F58A819B816115710589F1FB011A
:101A400093838283FE0111C0408151810281138101
:101A500048175907E0F04817590799F4109761F0B3
:101A600012960C93129713961C933296CF01DF9126
:101A7000CF911F910F9108950093730310937403F6
:101A8000F4CF2115310551F04217530738F0A90161
:101A9000DB019A01BD01DF01F801C1CFEF01F9CFF0
:101AA0009093740380937303CDCFFE01E20FF31F75
:101AB000819391932250310939832883D7CF209184
:101AC000710330917203232B41F420910202309173
:101AD000030230937203209371032091000230912E
:101AE00001022115310541F42DB73EB740910402A2
:101AF00050910502241B350BE0917103F0917203A4
:101B0000E217F307A0F42E1B3F0B2817390778F0D4
:101B1000AC014E5F5F4F2417350748F04E0F5F1F33
:101B20005093720340937103819391939FCFF0E0A0
:101B3000E0E09CCFCF93DF930097E9F0FC01329770
:101B400013821282A0917303B0917403ED0130E00F
:101B500020E01097A1F420813181820F931F209102
:101B60007103309172032817390709F061C0F093AF
:101B70007203E0937103DF91CF910895EA01CE17CC
:101B8000DF07E8F54A815B819E0141155105B1F7F8
:101B9000E901FB83EA8349915991C40FD51FEC17E2
:101BA000FD0761F4808191810296840F951FE90100
:101BB00099838883828193819B838A83F0E0E0E02C
:101BC00012968D919C9113970097B9F52D913C91A8
:101BD0001197CD010296820F931F209171033091CE
:101BE00072032817390739F6309751F510927403AC
:101BF00010927303B0937203A0937103BCCFD3838D
:101C0000C28340815181840F951FC817D90761F4A1
:101C10004E5F5F4F88819981480F591F51834083E0
:101C20008A819B81938382832115310509F0B0CF8E
:101C3000F0937403E09373039ECFFD01DC01C0CFEA
:101C400013821282D7CF4F925F926F927F928F92C0
:101C50009F92AF92BF92CF92DF92EF92FF920F933B
:101C60001F93CF93DF938C01009799F4CB01DF9101
:101C7000CF911F910F91FF90EF90DF90CF90BF9089
:101C8000AF909F908F907F906F905F904F900C944B
:101C9000FE0CFC01E60FF71F9C0122503109E217F0
:101CA000F30708F4AEC0D901CD91DC911197C617A6
:101CB000D70720F1C530D10578F0CE0104978617FB
:101CC000970750F0C61BD70B2297C193D1936D9302
:101CD0007C93CF010E949A0DC801DF91CF911F9193
:101CE0000F91FF90EF90DF90CF90BF90AF909F90BB
:101CF0008F907F906F905F904F9008955B01AC1A2A
:101D0000BD0A4C018C0E9D1EA0917303B09174030B
:101D1000512C412CF12CE12C109731F5809171035D
:101D2000909172038815990509F05CC04616570614
:101D300008F058C08091000290910102009741F490
:101D40008DB79EB74091040250910502841B950BFC
:101D5000E817F90708F055C0F0937203E093710398
:101D6000F90171836083B8CF8D919C911197129680
:101D70006C90129713967C901397A815B90559F596
:101D80006C0142E0C40ED11CCA14DB0420F1AC018A
:101D90004A195B09DA011296159780F06282738204
:101DA00051834083D9016D937C93E114F10471F068
:101DB000D7011396FC93EE9312978ECF22968C0F39
:101DC0009D1FF90191838083F301EFCFF09374039A
:101DD000E093730381CF4816590608F42C017D0166
:101DE000D3019ACFCB010E94FE0C7C01009749F0F1
:101DF000AE01B8010E94090FC8010E949A0D870127
:101E00006BCF10E000E068CF81E090E0F8940C9494
:101E1000220FFB01DC0102C001900D9241505040A5
:101E2000D8F70895FB01DC018D9101908019011014
:101E3000D9F3990B0895FB01DC0101900D9200206C
:101E4000E1F7089511E0CDE4D1E000E006C0802F75
:101E5000FE010E94F60C2196011DCE34D10780E0D0
:101E60000807A9F7F894FFCF000075038000004031
:101E700014540040105000000000B3038603DA043D
:101E80005C037F036C035D03000000004A06D80773
:101E900000000000F6038101DA04D9044B06E203D6
:101EA000310612065065736F0043616D696F6E00F5
:101EB0003231303100313031303200353031303371
:101EC00000313030313034003330303130350000C3
:020000040003F7
:10E000000D9489F10D94B2F10D94B2F10D94B2F129
:10E010000D94B2F10D94B2F10D94B2F10D94B2F1F0
:10E020000D94B2F10D94B2F10D94B2F10D94B2F1E0
:10E030000D94B2F10D94B2F10D94B2F10D94B2F1D0
:10E040000D94B2F10D94B2F10D94B2F10D94B2F1C0
:10E050000D94B2F10D94B2F10D94B2F10D94B2F1B0
:10E060000D94B2F10D94B2F10D94B2F10D94B2F1A0
:10E070000D94B2F10D94B2F10D94B2F10D94B2F190
:10E080000D94B2F10D94B2F10D94B2F10D94B2F180
:10E090000D94B2F10D94B2F10D94B2F10D94B2F170
:10E0A0000D94B2F10D94B2F10D94B2F10D94B2F160
:10E0B0000D94B2F10D94B2F10D94B2F10D94B2F150
:10E0C0000D94B2F10D94B2F10D94B2F10D94B2F140
:10E0D0000D94B2F10D94B2F10D94B2F10D94B2F130
:10E0E0000D94B2F141546D656761323536300041AF
:10E0F000726475696E6F206578706C6F72657220DE
:10E1000073746B3530305632206279204D4C530099
:10E11000426F6F746C6F616465723E004875683F52
:10E1200000436F6D70696C6564206F6E203D200048
:10E130004350552054797065202020203D20005FF9
:10E140005F4156525F415243485F5F3D2000415658
:10E1500052204C696243205665723D20004743437C
:10E160002056657273696F6E203D20004350552024
:10E1700049442020202020203D20004C6F7720663D
:10E18000757365202020203D20004869676820665F
:10E190007573652020203D200045787420667573D6
:10E1A00065202020203D20004C6F636B2066757336
:10E1B000652020203D20004D617220203720323024
:10E1C000313300312E362E3800342E332E350056A2
:10E1D00023202020414444522020206F7020636F70
:10E1E00064652020202020696E73747275637469E1
:10E1F0006F6E2061646472202020496E74657272B3
:10E20000757074006E6F20766563746F7200726A49
:10E210006D702020006A6D70200057686174207056
:10E220006F72743A00506F7274206E6F7420737541
:10E2300070706F72746564004D7573742062652030
:10E2400061206C6574746572002000577269747483
:10E25000696E672045450052656164696E672045B7
:10E26000450045452065727220636E743D00504F35
:10E27000525400303D5A65726F2061646472003FF1
:10E280003D43505520737461747300403D454550C3
:10E29000524F4D207465737400423D426C696E6B41
:10E2A000204C454400453D44756D70204545505215
:10E2B0004F4D00463D44756D7020464C415348001B
:10E2C000483D48656C70004C3D4C69737420492F83
:10E2D0004F20506F72747300513D51756974005234
:10E2E0003D44756D702052414D00563D73686F7707
:10E2F00020696E7465727275707420566563746FF0
:10E30000727300593D506F727420626C696E6B00BD
:10E310002A0011241FBECFEFD1E2DEBFCDBF01E046
:10E320000CBF12E0A0E0B2E0EEE1FDEF03E00BBFB6
:10E3300002C007900D92A030B107D9F712E0A0E01B
:10E34000B2E001C01D92AE30B107E1F70F9460F367
:10E350000D948DFE01E20EBF0FEF0DBF11241FBE05
:10E360000D9460F30D9400F020E030E040ED57E0B4
:10E3700005C0FA013197F1F72F5F3F4F2817390792
:10E38000C0F308959C01260F311DC901A0E0B0E043
:10E390002F5F3F4FABBFFC018791882361F08093D3
:10E3A000C6008091C00086FFFCCF8091C0008064D1
:10E3B0008093C000EACF08958DE08093C6008091DD
:10E3C000C00086FFFCCF8091C00080648093C000B5
:10E3D0008AE08093C6008091C00086FFFCCF8091C8
:10E3E000C00080648093C00008950F94C2F10F9420
:10E3F000DCF10895FC019081992359F09093C600B7
:10E400008091C00086FFFCCF8091C0008064809323
:10E41000C0003196992379F70895282F982F929567
:10E420009F70892F805D8A3308F0895F8093C600D2
:10E430008091C00086FFFCCF8091C00080648093F3
:10E44000C000822F8F70982F905D9A3308F0995FEB
:10E450009093C6008091C00086FFFCCF8091C000E1
:10E4600080648093C00008959C01FB01853691056E
:10E470001CF46330710594F0C90164E670E00F94F8
:10E480002EFE605D7F4F6093C6008091C00086FFC6
:10E49000FCCF8091C00080648093C0002B30310598
:10E4A00014F43297B4F0C90164E670E00F942EFEC4
:10E4B0006AE070E00F942EFE605D7F4F6093C600AF
:10E4C0008091C00086FFFCCF8091C0008064809363
:10E4D000C000C9016AE070E00F942EFEC0968093E0
:10E4E000C6008091C00086FFFCCF8091C000806490
:10E4F0008093C00008951F93182F8EE692EE60E07F
:10E500000F94C2F11093C6008091C00086FFFCCF2B
:10E510008091C00080648093C0000F94DCF11F9153
:10E5200008952F923F924F925F926F927F928F92B7
:10E530009F92AF92BF92CF92DF92EF92FF920F9392
:10E540001F93DF93CF93CDB7DEB762970FB6F894E2
:10E55000DEBF0FBECDBF382E622ECA01DB015C01CB
:10E560006D01772420E2222E2E010894411C511CBB
:10E570008BC081E0A81680E0B80681E0C80680E084
:10E58000D80628F0C601AA27BB270F940DF2BB2797
:10E59000AD2D9C2D8B2D0F940DF28A2D0F940DF225
:10E5A0002092C6008091C00086FFFCCF8091C00001
:10E5B00080648093C0009DE29093C6008091C0006B
:10E5C00086FFFCCF8091C00080648093C0002092C1
:10E5D000C6008091C00086FFFCCF8091C00080649F
:10E5E0008093C00019828601750188249924A1E0D6
:10E5F0003A1651F03A1620F0B2E03B1661F409C029
:10E600000BBFF701779007C0C7010F9477FE782EF4
:10E6100002C0F7017080872D0F940DF22092C60082
:10E620008091C00086FFFCCF8091C0008064809301
:10E63000C000872D8052F401EF70F0708F3520F408
:10E64000E40DF51D708204C0E40DF51D8EE280839B
:10E650000894E11CF11C011D111D0894811C911CE2
:10E6600090E18916910409F0C2CF80E190E0A0E02A
:10E67000B0E0A80EB91ECA1EDB1E198AC2010F9493
:10E68000FAF10F94DCF16A94662009F072CF629679
:10E690000FB6F894DEBF0FBECDBFCF91DF911F91B3
:10E6A0000F91FF90EF90DF90CF90BF90AF909F9031
:10E6B0008F907F906F905F904F903F902F90089534
:10E6C0002F923F924F925F926F927F928F929F9282
:10E6D000AF92BF92CF92DF92EF92FF920F931F9370
:10E6E000DF93CF93CDB7DEB7CD53D1400FB6F894BB
:10E6F000DEBF0FBECDBF01E20EBF0FEF0DBF94B75F
:10E70000F894A89514BE80916000886180936000A1
:10E7100010926000789493FF05C0E0910002F091A0
:10E7200001021995279A2F9A8091C00082608093E8
:10E73000C00080E18093C40088E18093C1000000A4
:10E74000EE24FF24870144E0A42EB12CCC24DD2448
:10E7500024C0C5010197F1F70894E11CF11C011DCB
:10E76000111D21E2E2162EE4F20620E0020720E06D
:10E77000120718F031E0C32ED12CC801B70127ECE5
:10E780003BE140E050E00F9441FE611571058105C9
:10E79000910519F485B1805885B98091C00087FD35
:10E7A00003C0C114D104A9F2A6014F5F5F4FC25E3E
:10E7B000DE4F59834883CE51D140C25EDE4F8881FF
:10E7C0009981CE51D140019711F00D9410FEC05D9A
:10E7D000DE4F19821882C053D14060E0C15DDE4F28
:10E7E0001882CF52D14088249924C35DDE4F19820C
:10E7F0001882CD52D140C05EDE4F188219821A8233
:10E800001B82C052D140CE5CDE4F188219821A8220
:10E810001B82C253D140EE24FF2487010BBFF701B6
:10E8200007911691C45CDE4F19830883CC53D14005
:10E830000D940BFEC25EDE4F28813981CE51D1404E
:10E840002130310509F52091C600C25EDE4F1982E4
:10E850001882CE51D14022C02F5F3F4F4F4F5F4FA4
:10E86000213082E138078AE7480780E0580780F0C6
:10E87000C45CDE4FE881F981CC53D140EF5FFF4F9C
:10E8800019F0EE27FF27099420E030E040E050E047
:10E890008091C00087FFE0CF2091C600C35DDE4FAE
:10E8A00048815981CD52D1404F5F5F4FC35DDE4FEC
:10E8B00059834883CD52D140213209F063C64A3092
:10E8C000510508F05FC60894811C911C53E0851621
:10E8D000910409F059C600E010E018C081E280936D
:10E8E000C6008091C00086FFFCCF8091C00080648C
:10E8F0008093C0002F5F3F4F2931310579F70F9486
:10E90000DCF10F5F1F4F0530110519F020E030E0FA
:10E91000E5CF10920A0210920B0210920C02109294
:10E920000D02109206021092070210920802109235
:10E930000902109202021092030210920402109235
:10E9400005028FEE90EE60E00F94F5F180E191EE1C
:10E9500060E00F94C2F18091C00087FFFCCF9091DE
:10E96000C600903608F09F759032B8F09093C600BC
:10E970008091C00086FFFCCF8091C00080648093AE
:10E98000C000A0E2A093C6008091C00086FFFCCF2B
:10E990008091C00080648093C000983409F4D7C18E
:10E9A0009934B8F4923409F459C1933458F490333B
:10E9B00019F1903308F4E3C59F33A1F1903409F0C5
:10E9C000DEC5BDC0953409F470C1963409F0D7C5D1
:10E9D00098C1923509F42BC2933538F49C3409F46C
:10E9E000F5C1913509F0CBC518C2963509F445C279
:10E9F000993509F0C4C567C483E792EE62E00F94CD
:10EA0000F5F110920602109207021092080210927D
:10EA1000090210920A0210920B0210920C0210923C
:10EA20000D0213C18FE792EE62E00F94F5F18FEEC5
:10EA300090EE60E00F94F5F181E291EE60E00F94CA
:10EA4000C2F187EB91EE60E00F94F5F180E391EE77
:10EA500060E00F94C2F184EE90EE60E00F94F5F167
:10EA60008FE391EE60E00F94C2F186E090E061E008
:10EA700070E00F9434F20F94DCF18DE591EE60E0DC
:10EA80000F94C2F189EC91EE60E00F94F5F18EE401
:10EA900091EE60E00F94C2F183EC91EE60E00F9490
:10EAA000F5F18CE691EE60E00F94C2F18EE10F94E7
:10EAB0000DF288E90F940DF281E00F940DF20F949E
:10EAC000DCF18BE791EE60E00F94C2F119E0E0E039
:10EAD000F0E010935700E4918E2F0F940DF20F94F5
:10EAE000DCF18AE891EE60E00F94C2F1E3E0F0E03F
:10EAF00010935700E4918E2F0F940DF20F94DCF1D8
:10EB000089E991EE60E00F94C2F1E2E0F0E0109349
:10EB10005700E4918E2F0F940DF20F94DCF188EAE8
:10EB200091EE60E00F94C2F1E1E0F0E01093570045
:10EB30001491812F0F940DF20F94DCF107CF8BE825
:10EB400092EE62E00F94F5F18BE492EE60E00F94A8
:10EB5000F5F10F94DCF100E010E019C0C8016F2D51
:10EB60000F947FFEFF2031F489E492EE60E00F9471
:10EB7000C2F10BC0F092C6008091C00086FFFCCFAE
:10EB80008091C00080648093C0000F5F1F4FC80158
:10EB900081519F41A0E0B0E0ABBFFC01F790BAE229
:10EBA000FB1621F0E2E000301E07C1F60F94DCF105
:10EBB0000F94DCF187E592EE60E00F94F5F10F948D
:10EBC000DCF1CC24DD2400E010E01EC0C8010F946D
:10EBD00077FEF82E882331F489E492EE60E00F94FA
:10EBE000C2F10BC08093C6008091C00086FFFCCFAD
:10EBF0008091C00080648093C000FE1419F00894D6
:10EC0000C11CD11C0F5F1F4FC80181519F41A0E063
:10EC1000B0E0ABBFFC01E790FAE2EF1621F022E092
:10EC20000030120799F60F94DCF10F94DCF182E6C4
:10EC300092EE60E00F94C2F1C60161E070E00F94C3
:10EC400034F20F94DCF10F94DCF110920202109276
:10EC50000302109204021092050278CE89E992EE26
:10EC600062E00F94F5F1279A2F9A16C02F9880E052
:10EC700090E0E0EDF7E03197F1F7019684369105E9
:10EC8000C1F72F9A80E090E0E0EDF7E03197F1F7DF
:10EC9000019684369105C1F78091C00087FFE6CFC9
:10ECA0008091C00087FFFCCF64C485EA92EE62E0E9
:10ECB0000F94F5F140910202509103026091040219
:10ECC0007091050281E020E10F9491F2809102029F
:10ECD00090910302A0910402B091050280509F4FD1
:10ECE000AF4FBF4F8093020290930302A0930402A0
:10ECF000B093050280509041A040B04008F426CE69
:10ED0000A4CF83EB92EE62E00F94F5F140910602FE
:10ED100050910702609108027091090280E020E1A1
:10ED20000F9491F28091060290910702A09108023F
:10ED3000B091090280509F4FAF4FBF4F80930602A2
:10ED400090930702A0930802B0930902FFCD80ECD4
:10ED500092EE62E00F94F5F183E792EE60E00F949B
:10ED6000F5F18FE792EE60E00F94F5F18BE892EE0B
:10ED700060E00F94F5F189E992EE60E00F94F5F10F
:10ED800085EA92EE60E00F94F5F183EB92EE60E09D
:10ED90000F94F5F180EC92EE60E00F94F5F187ECC2
:10EDA00092EE60E00F94F5F188ED92EE60E00F9442
:10EDB000F5F18FED92EE60E00F94F5F18AEE92EEB0
:10EDC00060E00F94F5F183E093EEBDCD87EC92EE19
:10EDD00062E00F94F5F181E40F947BF282E40F94EA
:10EDE0007BF283E40F947BF284E40F947BF285E45E
:10EDF0000F947BF286E40F947BF287E40F947BF20E
:10EE000088E40F947BF28AE40F947BF28BE40F94F6
:10EE10007BF28CE40F947BF299CD88ED92EE62E068
:10EE20000F94F5F1772473948824992409C48FED05
:10EE300092EE62E00F94F5F140910A0250910B02BC
:10EE400060910C0270910D0282E020E10F9491F22A
:10EE500080910A0290910B02A0910C02B0910D02D8
:10EE600080509F4FAF4FBF4F80930A0290930B0289
:10EE7000A0930C02B0930D0269CD8AEE92EE62E08F
:10EE80000F94F5F184EE90EE60E00F94F5F18FECC5
:10EE900091EE60E00F94F5F1662477244301CC5D98
:10EEA000DE4F19821882C452D140D401C301B695F5
:10EEB000A79597958795CA5DDE4F88839983AA8326
:10EEC000BB83C652D140CC5DDE4FA881B981C4520C
:10EED000D1401196CC5DDE4FB983A883C452D14096
:10EEE000CD0162E070E00F9434F2B0E2B093C6005E
:10EEF0008091C00086FFFCCF8091C0008064809329
:10EF0000C000EDE2E093C6008091C00086FFFCCF18
:10EF10008091C00080648093C000F0E2F093C6004E
:10EF20008091C00086FFFCCF8091C00080648093F8
:10EF3000C000CA5DDE4FE880F9800A811B81C6529D
:10EF4000D140BB27A12F902F8F2D0F940DF2CA5DBA
:10EF5000DE4F8881C652D1400F940DF2B0E2FB2EF5
:10EF6000F092C6008091C00086FFFCCF8091C00067
:10EF700080648093C0000DE30093C6008091C000C0
:10EF800086FFFCCF8091C00080648093C00010E2B7
:10EF90001093C6008091C00086FFFCCF8091C00016
:10EFA00080648093C0008BBEF3012791C65DDE4F65
:10EFB0002883CA52D140A22EBB24CC24DD2408943D
:10EFC000611C711C811C911C8BBEF3018791282E42
:10EFD0003324442455240894611C711C811C911C09
:10EFE0008BBEF3013791C55DDE4F3883CB52D140E4
:10EFF0000894611C711C811C911C8BBEF30147910C
:10F00000C45DDE4F4883CC52D140ADEFEA2EAFEF66
:10F01000FA2EAFEF0A2FAFEF1A2F6E0C7F1C801E57
:10F02000911E142D032DF22CEE24EA0CFB1C0C1D5A
:10F030001D1D0F940DF220E22093C6008091C000A8
:10F0400086FFFCCF8091C00080648093C000C65DC5
:10F05000DE4F8881CA52D1400F940DF230E23093D6
:10F06000C6008091C00086FFFCCF8091C000806404
:10F070008093C000C45DDE4F8881CC52D1400F9494
:10F080000DF240E24093C6008091C00086FFFCCFA5
:10F090008091C00080648093C000C55DDE4F888190
:10F0A000CB52D1400F940DF250E25093C6008091A4
:10F0B000C00086FFFCCF8091C00080648093C000B8
:10F0C0008FEFE8168FEFF80680E0080780E018075A
:10F0D00031F484E092EE60E00F94C2F1DFC0D80119
:10F0E000C7018070907CA070B0708050904CA040A0
:10F0F000B040D1F52FEF3FE340E050E0E222F322B1
:10F1000004231523CA5DDE4FA880B980CA80DB8046
:10F11000C652D140AE0CBF1CC01ED11EAA0CBB1CD7
:10F12000CC1CDD1C8EE092EE60E00F94C2F1BB2798
:10F13000A12F902F8F2D0F940DF28E2D0F940DF285
:10F1400030E23093C6008091C00086FFFCCF8091F2
:10F15000C00080648093C0004EE34093C60080915D
:10F16000C00086FFFCCF87C08EE09EEFA0E0B0E03D
:10F17000E822F9220A231B239CE0E91694E9F90608
:10F1800090E0090790E0190709F088C0C45DDE4FE0
:10F19000A881CC52D140EA2EFF2400E010E0102FCD
:10F1A0000F2DFE2CEE24C55DDE4FB881CB52D14031
:10F1B000EB0EF11C011D111DD601C501817090706F
:10F1C000A070B070DC0199278827E80EF91E0A1F8D
:10F1D0001B1F20EF30E040E050E0A222B322C42207
:10F1E000D52241E1AA0CBB1CCC1CDD1C4A95D1F7F1
:10F1F000EA0CFB1C0C1D1D1D81E090E0A0E0B0E0BE
:10F20000282239224A225B2235E1220C331C441C7D
:10F21000551C3A95D1F7E20CF31C041D151D57013E
:10F220006801AA0CBB1CCC1CDD1C85E192EE60E0E1
:10F230000F94C2F1C801AA27BB270F940DF2BB2778
:10F24000A12F902F8F2D0F940DF28E2D0F940DF274
:10F2500090E29093C6008091C00086FFFCCF809121
:10F26000C00080648093C000AEE3A093C60080918C
:10F27000C00086FFFCCF8091C00080648093C000F6
:10F28000C601AA27BB270F940DF2BB27AD2D9C2DDD
:10F290008B2D0F940DF28A2D0F940DF20F94DCF14B
:10F2A000CC5DDE4FE881F981C452D140F99709F471
:10F2B0004DCBF4E0EF2EF12C012D112D6E0C7F1CA7
:10F2C000801E911EF2CD83E093EE62E00F94F5F183
:10F2D0008AE192EE60E00F94C2F18091C00087FF56
:10F2E000FCCF1091C6001F751093C6008091C0001E
:10F2F00086FFFCCF8091C00080648093C0000F9493
:10F30000DCF1812F81548A3108F036C1163409F4BA
:10F3100095C0173490F4133409F44EC0143430F40B
:10F320001134F1F0123409F01DC130C0143409F465
:10F3300059C0153409F016C16BC01A3409F4C4C0A1
:10F340001B3438F4173409F48FC0183409F00AC19B
:10F35000A1C01B3409F4D2C01C3409F003C1E8C0B9
:10F360008FEF81B90DC082B1809582B980E090E0C5
:10F37000E0EDF7E03197F1F70196883C9105C1F790
:10F380008091C00087FFEFCF12B8EFC08FEF84B934
:10F390000DC085B1809585B980E090E0E0EDF7E0A3
:10F3A0003197F1F70196883C9105C1F78091C00033
:10F3B00087FFEFCF15B8D9C08FEF87B90DC088B1DF
:10F3C000809588B980E090E0E0EDF7E03197F1F7C3
:10F3D0000196883C9105C1F78091C00087FFEFCF6F
:10F3E00018B8C3C08FEF8AB90DC08BB180958BB9A7
:10F3F00080E090E0E0EDF7E03197F1F70196883C8E
:10F400009105C1F78091C00087FFEFCF1BB8ADC059
:10F410008FEF8DB90DC08EB180958EB980E090E0F0
:10F42000E0EDF7E03197F1F70196883C9105C1F7DF
:10F430008091C00087FFEFCF1EB897C08FEF80BBD1
:10F440000DC081B3809581BB80E090E0E0EDF7E0F6
:10F450003197F1F70196883C9105C1F78091C00082
:10F4600087FFEFCF11BA81C08FEF83BB0DC084B38C
:10F47000809584BB80E090E0E0EDF7E03197F1F714
:10F480000196883C9105C1F78091C00087FFEFCFBE
:10F4900014BA6BC08FEF809301010FC080910201FD
:10F4A00080958093020180E090E0E0EDF7E03197F5
:10F4B000F1F70196883C9105C1F78091C00087FF64
:10F4C000EDCF1092020151C08FEF809304010FC065
:10F4D0008091050180958093050180E090E0E0ED4A
:10F4E000F7E03197F1F70196883C9105C1F78091DB
:10F4F000C00087FFEDCF1092050137C08FEF8093DA
:10F5000007010FC08091080180958093080180E079
:10F5100090E0E0EDF7E03197F1F70196883C910536
:10F52000C1F78091C00087FFEDCF109208011DC088
:10F530008FEF80930A010FC080910B01809580931B
:10F540000B0180E090E0E0EDF7E03197F1F70196F4
:10F55000883C9105C1F78091C00087FFEDCF1092E4
:10F560000B0103C085E292EEEEC98091C00087FFD7
:10F57000FCCF8091C600EAC988E392EEE4C98CE131
:10F5800091EEE1C988249924933011F1943028F444
:10F59000913089F09230B8F408C0953061F195301F
:10F5A000F0F0963009F048C043C02B3109F042C951
:10F5B00091E06BE13FC96227C15DDE4F2883CF52E6
:10F5C000D14092E037C9B22FA0E0622793E032C960
:10F5D000822F90E0A82BB92B622794E02BC92E3004
:10F5E00009F039C3622795E0C05DDE4F19821882A9
:10F5F000C053D1401FC9E1E0F0E0EC0FFD1FC05D3A
:10F60000DE4F08811981C053D140E00FF11F2083E4
:10F610000F5F1F4FC05DDE4F19830883C053D14079
:10F6200062270A171B0709F005C9D80196E002C92D
:10F63000261709F010C303C0973009F0FBC87724E0
:10F640009981933109F412C19431C8F4963009F4C8
:10F65000D8C0973050F4923009F406C1933009F4C1
:10F660006DC0913009F059C253C0913109F477C08F
:10F67000923108F0BBC0903109F04FC2F5C098310B
:10F6800009F487C0993150F4953109F4EFC09531F0
:10F6900008F4C6C1963109F040C2C2C19A3109F4DA
:10F6A0006CC09A3108F491C09B3109F45BC09D3164
:10F6B00009F033C29D81903359F48F81882311F46E
:10F6C0009EE11CC0813011F091E018C098E916C08D
:10F6D000892F807591F0903539F4E0E0F0E089E011
:10F6E0008093570094910AC0983539F4E3E0F0E034
:10F6F00089E080935700949101C090E01A821B82A8
:10F700008D818C831D829E831F8227E030E009C299
:10F710001A8288E08B8381E48C8386E58D8382E581
:10F720008E8389E48F8383E5888780E589878FE5E9
:10F730008A8782E38B872BE030E0F3C18A818139AD
:10F7400041F0823941F0803911F48FE005C080E04A
:10F7500003C082E001C08AE01A828B8344C0772410
:10F76000739482C08D81882311F48EE12CC0813086
:10F7700011F081E028C088E926C01A82E1E0F0E0BB
:10F7800089E08093570084918B831C8224E030E0D1
:10F79000C8C18B81803589F48C81883039F4E2E0EE
:10F7A000F0E089E08093570084910DC0E0E0F0E044
:10F7B00089E080935700849106C0E3E0F0E089E09F
:10F7C0008093570084911A82DFCF8D81836C99E0FA
:10F7D000E1E0F0E0082E90935700E89507B600FCB2
:10F7E000FDCF1A821B8223E030E09BC180EC8A832C
:10F7F000CE5CDE4F188219821A821B82C253D1401E
:10F800008EC18A8190E0A0E0B0E0582F44273327D2
:10F8100022278B8190E0A0E0B0E0DC0199278827C7
:10F82000282B392B4A2B5B2B8D8190E0A0E0B0E098
:10F83000282B392B4A2B5B2B8C8190E0A0E0B0E089
:10F84000BA2FA92F982F8827282B392B4A2B5B2BCF
:10F85000220F331F441F551FC05EDE4F288339839C
:10F860004A835B83C052D1401A8259C13A81C95C34
:10F87000DE4F3883C753D140CA5CDE4F1882C6536F
:10F88000D1408B81C82EDD24CA5CDE4F488159816E
:10F89000C653D140C42AD52A933109F082C0CE5C28
:10F8A000DE4F88819981AA81BB81C253D1408050AB
:10F8B000904CA340B04030F583E0CE5CDE4FE88052
:10F8C000F9800A811B81C253D140F70100935B008C
:10F8D00080935700E89507B600FCFDCFCE5CDE4F65
:10F8E000088119812A813B81C253D14000501F4FAA
:10F8F0002F4F3F4FCE5CDE4F088319832A833B8313
:10F90000C253D140C05EDE4F488159816A817B81FC
:10F91000C052D140DE011B9631E08C9111962C91A2
:10F9200011971296C75CDE4F2883C953D140C85C3B
:10F93000DE4F1882C853D14090E0C85CDE4FE881AA
:10F94000F981C853D1408E2B9F2B0C01FA01609393
:10F950005B0030935700E89511244E5F5F4F6F4F67
:10F960007F4F0EEFE02E0FEFF02ECE0CDF1CC114F8
:10F97000D10499F685E0C05EDE4F088119812A81A5
:10F980003B81C052D140F80120935B008093570027
:10F99000E89507B600FCFDCF81E180935700E8951C
:10F9A00035C0C05EDE4F88819981AA81BB81C0527B
:10F9B000D140B695A795979587957C018601ABE0D8
:10F9C000AA2EB12CAC0EBD1E0BC0D5016D915D01F0
:10F9D000C7010F947FFE0894E11CF11C01501040F8
:10F9E0000115110591F7A60160E070E0440F551F65
:10F9F000661F771FC05EDE4FE880F9800A811B8199
:10FA0000C052D1404E0D5F1D601F711F1A82C05E33
:10FA1000DE4F488359836A837B83C052D1407FC0C5
:10FA2000FA80C55CDE4FF882CB53D140C65CDE4F16
:10FA30001882CA53D1408B81C82EDD24C65CDE4FAC
:10FA400008811981CA53D140C02AD12A1A828981DA
:10FA5000BE016D5F7F4F843121F59601C05EDE4FA0
:10FA6000E880F9800A811B81C052D1400BBFF701A9
:10FA700087919691DB018C9311969C936E5F7F4FDB
:10FA8000D801C7010296A11DB11DC05EDE4F88835B
:10FA90009983AA83BB83C052D14022503040F1F6F3
:10FAA00036C0C05EDE4F288139814A815B81C052F9
:10FAB000D1400894C108D108760100E010E0089414
:10FAC000C11CD11C0894E11CF11C011D111DE20E8A
:10FAD000F31E041F151F21BDBB27A52F942F832FB5
:10FAE00082BD2F5F3F4F4F4F5F4FF89A80B5DB01CC
:10FAF0008D93BD012E153F054007510761F7C05E8C
:10FB0000DE4F288339834A835B83C052D1409601FC
:10FB10002D5F3F4FFB01108204C080EC8A8322E0FE
:10FB200030E08BE18093C6008091C00086FFFCCF5F
:10FB30008091C00080648093C000C15DDE4FF88179
:10FB4000CF52D140F093C6008091C00086FFFCCF19
:10FB50008091C00080648093C000432F3093C60022
:10FB60008091C00086FFFCCF8091C00080648093AC
:10FB7000C000922F2093C6008091C00086FFFCCF6A
:10FB80008091C00080648093C0008EE08093C600A6
:10FB90008091C00086FFFCCF8091C000806480937C
:10FBA000C00065E1C15DDE4FE880CF52D1406E25D7
:10FBB00069276427FE01319610C090819093C6009A
:10FBC0008091C00086FFFCCF31968091C000806498
:10FBD0008093C0006927215030402115310569F715
:10FBE0006093C6008091C00086FFFCCF8091C0006A
:10FBF00080648093C00085B1805885B9772081F4F6
:10FC0000C15DDE4F0881CF52D1400F5FC15DDE4F35
:10FC10000883CF52D14090E0A0E0B0E00D941AF4F8
:10FC200027982F9880E090E020ED37E0F901319798
:10FC3000F1F7019684369105C9F700008091C00064
:10FC40008D7F8093C00081E180935700E895EE2777
:10FC5000FF270994FFCF90E00D941AF497FB092E2B
:10FC600007260AD077FD04D02ED006D000201AF443
:10FC7000709561957F4F0895F6F7909581959F4F08
:10FC80000895A1E21A2EAA1BBB1BFD010DC0AA1FDD
:10FC9000BB1FEE1FFF1FA217B307E407F50720F0F5
:10FCA000A21BB30BE40BF50B661F771F881F991F70
:10FCB0001A9469F760957095809590959B01AC01B9
:10FCC000BD01CF010895AA1BBB1B51E107C0AA1FAC
:10FCD000BB1FA617B70710F0A61BB70B881F991FED
:10FCE0005A95A9F780959095BC01CD010895F99991
:10FCF000FECF92BD81BDF89A992780B50895262F31
:10FD0000F999FECF1FBA92BD81BD20BD0FB6F89400
:0EFD1000FA9AF99A0FBE01960895F894FFCF63
:00000001FF
