:100000000C944E010C947F010C947F010C947F01A1
:100010000C947F010C947F010C947F010C947F0160
:100020000C947F010C947F010C947F010C947F0150
:100030000C947F010C947F010C947F010C947F0140
:100040000C947F010C947F010C947F010C947F0130
:100050000C947F010C947F010C947F010C94A308F5
:100060000C947F010C947F010C947F010C947F0110
:100070000C947F010C947F010C947F010C947F0100
:100080000C947F010C947F010C947F010C947F01F0
:100090000C947F010C947F010C947F010C94ED086B
:1000A0000C947F010C947F010C947F010C947F01D0
:1000B0000C947F010C947F010C947F010C947F01C0
:1000C0000C947F010C947F010C947F010C947F01B0
:1000D0000C947F010C947F010C947F010C947F01A0
:1000E0000C947F010C94E8070C9407020C94E70130
:1000F0000C94110A0C94EB010C9411020C94F50170
:100100000C94DD040C94F1010C94D2010C94DA01EE
:100110000C945D030C944D060C9415060C94340657
:100120000C9481010C940C020C94F9010C94D601EE
:100130000C94FF010C94E10D0C945C030C940D02E3
:100140000C94CC010C945B030C94F6030C94DE012C
:100150000C94B3030C94DC040C9403020C94E2039F
:100160000C944E060C945A030C946C030C947F036D
:100170000C9486030C94E101000021002400270068
:100180002A002D00300033000101000004010701A6
:100190000A0100002200250028002B002E0031005B
:1001A000340002010000050108010B0100002000DD
:1001B0002300260029002C002F003200000100003F
:1001C00003010601090105050505070508080808DA
:1001D000020202020A0A08080404040401010101DF
:1001E00001010101030303030303030304070707DA
:1001F0000C0C0C0C0C0C0C0C02020202060606067F
:10020000060606060B0B0B0B0B0B0B0B010210204B
:10021000200808102040102040800201020108043C
:1002200002010102040810204080804020100804D0
:100230000201800402018040201008040201080429
:10024000020101020408102040800102040810206D
:10025000408000000A0B02090C0D0E080703040180
:10026000000000000000000000000000000000008E
:10027000000000000000000000000000000012115B
:10028000100000000000000000000000000000005E
:100290000000000000000000110AE10D11241FBE43
:1002A000CFEFD1E2DEBFCDBF00E00CBF23E0AEE672
:1002B000B2E001C01D92A737B207E1F712E0A0E05B
:1002C000B2E0E4E9F0E200E00BBF02C007900D925B
:1002D000AE36B107D9F711E0CDE4D1E000E006C0B9
:1002E00021970109802FFE010E940C0ECC34D1070A
:1002F00080E00807A9F70E94AD0A0C9438100C940E
:100300000000AF92BF92CF92DF92EF92FF920F93D5
:100310001F93CF93DF936C017B018B01040F151F9B
:10032000EB015E01AE18BF08C017D10759F0699103
:10033000D601ED91FC910190F081E02DC601199557
:10034000892B79F7C501DF91CF911F910F91FF9014
:10035000EF90DF90CF90BF90AF90089581508231A1
:1003600008F05AC0E82FF0E08827E654FE4F8F4F80
:100370000C940C0EDA01DE01CC01D201D6010C0284
:10038000E101E701EB01F101F501F901FF010302D0
:100390000C0207020D021102809180008F7780937A
:1003A00080000895809180008F7DF9CF809180003A
:1003B000877FF5CF84B58F7784BD089584B58F7D11
:1003C000FBCF8091B0008F778093B000089580912B
:1003D000B0008F7DF9CF809190008F77809390004F
:1003E0000895809190008F7DF9CF80919000877F54
:1003F000F5CF8091A0008F778093A0000895809121
:10040000A0008F7DF9CF8091A000877FF5CF8091EC
:1004100020018F77809320010895809120018F7DA6
:10042000F9CF80912001877FF5CFCF93DF93282FDD
:1004300030E0F901EE5AFD4F8491F901E45FFD4F80
:10044000D491F901EA53FE4FC491CC23A1F081115C
:100450000E94AE01EC2FF0E0EE0FFF1FE455FE4FBF
:10046000A591B491EC91ED2381E090E009F480E056
:10047000DF91CF91089580E090E0FACF1F93CF9362
:10048000DF93282F30E0F901EE5AFD4F8491F901F6
:10049000E45FFD4FD491F901EA53FE4FC491CC23A0
:1004A000A9F0162F81110E94AE01EC2FF0E0EE0FA3
:1004B000FF1FEE56FE4FA591B4918FB7F894EC91C3
:1004C000111108C0D095DE23DC938FBFDF91CF914F
:1004D0001F910895DE2BF8CFCF93DF9390E0FC01BE
:1004E000E45FFD4F24918A539E4FFC018491882341
:1004F000D1F090E0880F991FFC01E858FE4FA591BC
:10050000B491FC01EE56FE4FC591D49161110EC01D
:100510009FB7F8948C91E22FE0958E238C932881DD
:10052000E223E8839FBFDF91CF9108958FB7F894BE
:10053000EC91E22BEC938FBFF6CF3FB7F89480910C
:100540002D0390912E03A0912F03B091300326B577
:10055000A89B05C02F3F19F00196A11DB11D3FBFFB
:10056000BA2FA92F982F8827BC01CD01620F711DCA
:10057000811D911D42E0660F771F881F991F4A95C4
:10058000D1F708958F929F92AF92BF92CF92DF9250
:10059000EF92FF924B015C010E949D026B017C0176
:1005A0000E949D026C197D098E099F09683E734067
:1005B00081059105A8F321E0821A9108A108B108EC
:1005C00088EEC80E83E0D81EE11CF11C8114910452
:1005D000A104B10429F7FF90EF90DF90CF90BF9076
:1005E000AF909F908F9008952091DC02260F3327C3
:1005F000331F21323105ECF420910203FC0190E01D
:1006000080E0243069F082E00895A091DC0221911D
:10061000AC0146545D4FA40FB52FB11D2C9301962C
:10062000861798F38091DC02680F6093DC0280E00B
:10063000089581E008951092020381E080930403FD
:100640001092030361E084E10E943E0261E085E1D3
:100650000E943E02E9EBF0E080818E7F8083808102
:100660008D7F808388E48093B80085E48093BC000C
:100670000895CF93DF9391E09093B9028823B9F066
:10068000C091B800D091BA008091BC008A7B809361
:10069000BC0060E084E10E943E0260E085E10E94CF
:1006A0003E020E941B03D093BA00C093B800DF91B2
:1006B000CF910895089508950895E091B102809131
:1006C000B002E81730F4F0E0E057FD4F808190E091
:1006D00008958FEF9FEF08959091B1028091B0023D
:1006E0002FEF3FEF981748F4E92FF0E0E057FD4F68
:1006F000208130E09F5F9093B102C90108958091FD
:10070000B0029091B102891B990B0895CF92DF92AC
:10071000EF92FF920F931F93CF93DF937C01CB0156
:100720008A0120918F02222389F0EB016B01C40E14
:10073000D51ECC15DD0569F06991D701ED91FC91CD
:100740000190F081E02DC7011995F3CF642F0E942D
:10075000F402C801DF91CF911F910F91FF90EF90AC
:10076000DF90CF900895CF93DF931F92CDB7DEB780
:10077000698320918F022223F9F02091B202203266
:1007800058F021E030E0FC013383228390E080E0E8
:100790000F90DF91CF9108958091B302E82FF0E0A0
:1007A000E159FD4F998190838F5F8093B3028093CD
:1007B000B20281E090E0ECCF61E0CE0101960E94B0
:1007C000F402F7CF21E001C0220F6A95EAF7DC01BD
:1007D0001C962C931C971A965C934E931997ED9147
:1007E000FC910484F585E02D60E01994DC01ED9125
:1007F000FC910684F785E02D41E0199581E090E0B9
:100800000895DC01ED91FC910684F785E02D40E030
:1008100019940F931F93CF93DF9300D000D01F92B2
:100820001F92CDB7DEB7009106021091070220910A
:100830000802309109020D831E832F8338870091AF
:100840000A0210910B0220910C0230910D020983D3
:100850001A832B833C8390915B03691710F06FEF31
:10086000690F262F30E040915C032C0F3D1FF901EA
:10087000403199F4943089F46181680F606884E5AF
:1008800093E028960FB6F894DEBF0FBECDBFDF9180
:10089000CF911F910F910C9401046581EECF61E01F
:1008A0000E9401048BE39FE10197F1F708950F93F4
:1008B0001F93CF93DF93EC01423018F08C81886056
:1008C0008C834F836887222329F0413019F48C816F
:1008D00084608C8364E670E080E090E00E94C20255
:1008E0006C8164FD50C0E881F9810684F785E02DB4
:1008F00042E063E0CE0119950BE416E4C8010197CC
:10090000F1F7E881F9810684F785E02D42E063E0A4
:10091000CE011995C8010197F1F7E881F9810684A4
:10092000F785E02D42E063E0CE01199583E592E082
:100930000197F1F7E881F9810684F785E02D42E01F
:1009400062E0CE0119956C816062CE010E940104C3
:1009500084E08D836CE0CE010E940104CE010E94F0
:100960004F0482E08E8366E0CE010E940104E8819C
:10097000F9810484F585E02D6FEFCE01DF91CF91F1
:100980001F910F9119946062CE010E9401048BE4C3
:1009900096E40197F1F76C816062CE010E94010438
:1009A00083E592E00197F1F76C816062CE010E94CD
:1009B0000104C9CF08950895089590E080E0089556
:1009C000CF92DF92EF92FF920F931F93CF93DF931B
:1009D000FC012381222309F4F1C0262F6181609557
:1009E00062236083C28181E080938F02C0936E0294
:1009F0001092B3021092B2028BE393E00E94B30311
:100A0000D091B20221E0D13208F09AC00E949D023A
:100A10006B017C018091020381116CC082E08093A4
:100A2000020381E0809304038FEF8093010310920F
:100A30002603D0932503AFE6B2E0E5E0F3E080E0E3
:100A4000D81394C01092270380912703CC0FC82B92
:100A5000C093270380910303813009F08BC010926B
:100A600003030E949D026B017C0180912703809308
:100A7000BB008091B5029091B602A091B702B091EF
:100A8000B802892B8A2B8B2BA1F00E949D0200912A
:100A9000B5021091B6022091B7023091B8026C19DC
:100AA0007D098E099F09061717072807390708F4DB
:100AB00042C08091BC0083FDD8CF85EC8093BC0000
:100AC0000E949D026B017C0180910203823009F437
:100AD00053C08091010320E08F3F91F18091010389
:100AE00022E0803269F18091010324E0803341F5F6
:100AF00023E026C08091B5029091B602A091B70282
:100B0000B091B802892B8A2B8B2B09F483CF0E94DA
:100B10009D020091B5021091B6022091B70230916A
:100B2000B8026C197D098E099F0906171707280757
:100B3000390708F06FCF8091B4020E94390325E095
:100B40001092B3021092B20210928F0230E081E054
:100B500090E0232B11F090E080E0DF91CF911F9186
:100B60000F91FF90EF90DF90CF9008959D9191931A
:100B70008F5F66CF85EEA2CF8091B5029091B602CD
:100B8000A091B702B091B802892B8A2B8B2B09F464
:100B90009BCF0E949D020091B5021091B602209158
:100BA000B7023091B8026C197D098E099F090617AA
:100BB00017072807390708F087CFBDCF30E020E0BE
:100BC000C6CFEF92FF920F931F93CF938C01FC013E
:100BD00084E0C0E0262F30E060FF02C09589C92B79
:100BE000B90175956795815031968111F3CF4130E8
:100BF00011F4F8014489F8016585C62BC42B7801EE
:100C0000FEE0EF0EF11CF80162896C2BC7010E9417
:100C1000E004F801628960956C23C701CF911F91B0
:100C20000F91FF90EF900C94E0040F931F93CF93DC
:100C3000DF93062F0F70423041F440E0602FDF91C8
:100C4000CF911F910F910C94E105142FEC0170E0EE
:100C500084E0759567958A95E1F7CE010E94E105DC
:100C6000412F602FCE01EBCFFC0184858823A1F0BA
:100C7000218532852115310521F4611107C01586C2
:100C800006C021303105D9F76111F9CF8587658517
:100C9000CF010E960C94E004089508954F925F9250
:100CA0006F927F928F929F92AF92BF92EF92FF923C
:100CB0000F931F93CF93DF93EC01062FF42EE22EB8
:100CC0008B85888B1092B1021092B0021092B30201
:100CD0001092B2020E941B038AE593E09093DB021C
:100CE0008093DA028BE593E09093DF028093DE023B
:100CF00018890E949D024B015C01809102038111C1
:100D000064C081E080930203809304039FEF90937B
:100D100001031092260310922503809327038091EC
:100D20002703110F182B10932703809103038130A1
:100D300009F09DC0109203030E949D024B015C01CB
:100D4000809127038093BB008091B5029091B602F9
:100D5000A091B702B091B802892B8A2B8B2BA1F0FE
:100D60000E949D024090B5025090B6026090B7027A
:100D70007090B802681979098A099B0946165706C6
:100D80006806790608F442C08091BC0083FDD8CF84
:100D900085EC8093BC000E949D024B015C01809118
:100DA0000203813009F465C080912603811183C05C
:100DB00080912603E5E0F3E0A0E9B2E090E0981727
:100DC00051F121912D939F5FFACF8091B5029091BF
:100DD000B602A091B702B091B802892B8A2B8B2B57
:100DE00009F48BCF0E949D024090B5025090B6024C
:100DF0006090B7027090B802681979098A099B0956
:100E0000461657066806790608F077CF8091B40237
:100E10000E94390380E01092B1028093B00291E009
:100E2000811101C090E0998B8BE393E00E946C03E9
:100E30008E878989882339F01F861C8260E0CE0165
:100E40000E960E94E0042E2D4F2D602FCE01DF91D3
:100E5000CF911F910F91FF90EF90BF90AF909F9017
:100E60008F907F906F905F904F900C94570485EE19
:100E700090CF8091B5029091B602A091B702B09147
:100E8000B802892B8A2B8B2B09F489CF0E949D02F3
:100E90004090B5025090B6026090B7027090B802D0
:100EA000681979098A099B09461657066806790662
:100EB00008F075CFABCF81E07DCF8F929F92AF923C
:100EC000BF920F931F93CF93DF93CDB7DEB7A19758
:100ED0000FB6F894DEBF0FBECDBF19A2423008F4A2
:100EE0004AE08E010F5D1F4F842E912CB12CA12C56
:100EF000A50194010E94EA0DE62FB901CA01EA306A
:100F000044F5E05DD801EE938D01232B242B252B96
:100F100079F790E080E0109769F0FD0101900020E2
:100F2000E9F73197AF014A1B5B0BBD0184E593E004
:100F30000E948101A1960FB6F894DEBF0FBECDBF0F
:100F4000DF91CF911F910F91BF90AF909F908F90A5
:100F50000895E95CD7CFCF92DF92EF92FF92CF93C3
:100F6000DF936C01990FEE08FF08F7FE19C06DE2E0
:100F700084E593E00E94F603EC0166277727CB0116
:100F80006C197D098E099F094AE00E945D078C0F4C
:100F90009D1FDF91CF91FF90EF90DF90CF9008954C
:100FA0004AE0C701B601DF91CF91FF90EF90DF904B
:100FB000CF900C945D07FC0101900020E9F7319778
:100FC000AF01481B590BBC0184E593E00C948101EF
:100FD0000C94B00ECF93DF93EC0180916D03909150
:100FE0006E03009759F020916F03309170032C1716
:100FF0003D0720F081E0DF91CF910895BE016F5F42
:101000007F4F0E94390F009789F090936E03809371
:101010006D03D0937003C0936F03209171033091DF
:101020007203232B39F7FC011082E4CF80E0E3CF79
:101030000F931F93CF93DF938C01EC010990002055
:10104000E9F72197C81BD90BCE010E94EA0720912E
:101050006D0330916E03811117C02115310519F010
:10106000C9010E94B00E10926E0310926D0310928F
:101070007203109271031092700310926F03DF914C
:10108000CF911F910F910895D0937203C093710374
:10109000B801C901DF91CF911F910F910C943110CC
:1010A0002091710330917203232B39F421E0FC016C
:1010B0008081882361F020E00AC0BC0180916D032B
:1010C00090916E030E94281021E0892BA1F7822FB6
:1010D00008950E941A1085ED8093BC008091B5029E
:1010E0009091B602A091B702B091B8020796A11DE7
:1010F000B11D23E0B695A795979587952A95D1F7C9
:101100002091BC0024FD03C0109202030895409179
:10111000B5025091B6026091B7027091B802452BAA
:10112000462B472B69F30097A105B10541F02AE250
:101130002A95F1F700C00197A109B109E1CF80918B
:10114000B4020C9439031F920F920FB60F92112420
:101150002F933F938F939F93AF93BF9380912903D6
:1011600090912A03A0912B03B0912C033091280376
:1011700023E0230F2D3758F50196A11DB11D2093B3
:1011800028038093290390932A03A0932B03B09301
:101190002C0380912D0390912E03A0912F03B091E9
:1011A00030030196A11DB11D80932D0390932E0352
:1011B000A0932F03B0933003BF91AF919F918F9174
:1011C0003F912F910F900FBE0F901F90189526E81A
:1011D000230F0296A11DB11DD2CF1F920F920FB601
:1011E0000F9211240BB60F922F933F934F935F935F
:1011F0006F937F938F939F93AF93BF93EF93FF93DF
:101200008091B900887F803609F44DC008F040C055
:10121000883209F4A9C028F5803109F49DC0C8F4CA
:10122000882309F4FBC0883009F496C0FF91EF9140
:10123000BF91AF919F918F917F916F915F914F91EE
:101240003F912F910F900BBE0F900FBE0F901F90EC
:101250001895883109F488C0803241F780930103E2
:1012600014C0803409F49DC040F48033B9F388334E
:10127000E9F68093010385ECB0C0803509F485C0A0
:10128000883509F496C0883489F60E946B08CECF61
:10129000883909F48CC038F5883729F050F488363D
:1012A00011F0803719F683E0809302031092000357
:1012B00057C0883809F47BC0803919F0803809F0AC
:1012C000B5CF80910003803208F071C0E091000337
:1012D00081E08E0F809300038091BB00F0E0E0522C
:1012E000FD4F80833DC0803B39F0E0F4803A09F443
:1012F00079C0883A09F09ACF84E080930203109273
:10130000DD021092DC02E091DA02F091DB02199525
:101310008091DC0281110FC081E08093DC02109289
:10132000BA0209C0803C09F4A6CF883C09F4A3CFD7
:10133000883B09F07BCFE091DD0281E08E0F809346
:10134000DD02F0E0E654FD4F80818093BB00909178
:10135000DD028091DC0229C0809127038093BB00CD
:1013600085EC8093BC0062CF909126038091250389
:10137000981758F5E091260381E08E0F809326039D
:10138000F0E0EB5FFC4F8081E9CFE091260381E044
:101390008E0F809326038091BB00F0E0EB5FFC4F43
:1013A000808390912603809125039817C8F285E8E1
:1013B000D8CFE091260381E08E0F809326038091A1
:1013C000BB00F0E0EB5FFC4F808380910403811150
:1013D0005CCF81E08093030384EA8093BC00109289
:1013E000020324CF85EC8093BC001092020380910D
:1013F0000003803230F4E0910003F0E0E052FD4F52
:1014000010826091000370E0E091DE02F091DF0253
:1014100080EE92E019951092000308CF109201031C
:1014200034CF10923E0310923D0388EE93E0A0E08B
:10143000B0E080933F0390934003A0934103B093A7
:10144000420382E192E090933C0380933B0310922D
:101450006E0310926D031092700310926F0310923E
:1014600072031092710390E080E00E94EA072091DD
:101470006D0330916E03811166C02115310519F09D
:10148000C9010E94B00E10926E0310926D0310926B
:101490007203109271031092700310926F031092F6
:1014A0005703109256038CE292E090935503809379
:1014B0005403109264038FEF8093630310926203CE
:1014C0001092650380E280935F0310926003109294
:1014D000610310925E0310925D0394E090936603A3
:1014E00092E09093670391E09093680390E190936A
:1014F000690380936A0380E480936B0380E88093A0
:101500006C0350E040E063E084E593E00E94E20376
:1015100084E292E0909348038093470310924C0337
:1015200010924D0310924E0310924F0380E090E012
:10153000A0E8BFE38093500390935103A09352031C
:10154000B09353030895109272031092710365E6ED
:1015500072E0C9010E943110A2CF789484B58260F4
:1015600084BD84B5816084BD85B5826085BD85B547
:10157000816085BD80916E00816080936E001092C5
:101580008100809181008260809381008091810040
:1015900081608093810080918000816080938000D1
:1015A0008091B10084608093B1008091B00081602F
:1015B0008093B0008091910082608093910080912F
:1015C0009100816080939100809190008160809370
:1015D00090008091A10082608093A1008091A10081
:1015E00081608093A1008091A00081608093A00021
:1015F000809121018260809321018091210181608D
:10160000809321018091200181608093200180914D
:101610007A00846080937A0080917A00826080935F
:101620007A0080917A00816080937A0080917A00BC
:10163000806880937A001092C10020E044E060E16D
:1016400084E593E00E944E066FEF84E593E00E94EC
:10165000340661E086E10E946C0261E087E10E944D
:101660006C0261E088E10E946C02C9E160E08C2FAD
:101670000E946C02CF5FCF31C9F7DFE161E08D2FAF
:101680000E946C02DF5FD432C9F761E08C2F0E94A8
:101690003E02CF5FC432C9F7C0E0D0E084E593E0FA
:1016A0000E944F0489E10E941502019709F0EDC0E4
:1016B0008CE392E00E9418088091390390913A03DC
:1016C0000A9690933A03809339038CE392E00E9448
:1016D0005008882309F42AC184E593E00E944F044E
:1016E00061E086E10E943E0260E087E10E943E02E6
:1016F00060E088E10E943E0268EE73E080E090E0E6
:101700000E94C20260E086E10E943E0260E087E142
:101710000E943E0260E088E10E943E0285E692E07F
:101720000E94180860E080E00E9409048BE592E0C6
:101730000E94DB0760E089E00E9409048091390380
:1017400090913A030E94AB0761E080E00E94090497
:1017500086E692E00E94DB0761E089E00E940904CE
:1017600081E090E00E94AB0768EE73E080E090E0DB
:101770000E94C20284E593E00E944F0484E593E056
:101780000E944F048091390390913A03843F914025
:1017900091F410923A031092390360E08FE10E94B5
:1017A0003E0260E177E280E090E00E94C20261E0E8
:1017B0008FE10E943E028091370390913803843F6D
:1017C000914091F4109238031092370360E080E268
:1017D0000E943E0260E177E280E090E00E94C20257
:1017E00061E080E20E943E028091350390913603D1
:1017F0008639910591F4109236031092350360E01A
:1018000081E20E943E0260E177E280E090E00E9487
:10181000C20261E081E20E943E0280913303909116
:1018200034038639910591F41092340310923303F6
:1018300060E082E20E943E0260E177E280E090E0B8
:101840000E94C20261E082E20E943E028091310366
:10185000909132038436910591F4109232031092E4
:10186000310360E083E20E943E0260E177E280E0C3
:1018700090E00E94C20261E083E20E943E02209753
:1018800009F40CCF0E94000009CF8AE10E941502E2
:10189000019771F481E492E00E9418088091370367
:1018A000909138030A9690933803809337030DCFB5
:1018B0008BE10E941502019771F487E492E00E9487
:1018C000180880913503909136030A969093360359
:1018D00080933503FACE8DE10E941502019771F4D1
:1018E0008DE492E00E9418088091330390913403B4
:1018F0000A969093340380933303E7CE8EE10E94DF
:101900001502019771F484E592E00E941808809115
:101910003103909132030A969093320380933103FE
:10192000D4CE85E692E00E941808CFCE81E492E002
:101930000E945008882309F447C084E593E00E9480
:101940004F0460E086E10E943E0261E087E10E9470
:101950003E0260E088E10E943E0268EE73E080E0B3
:1019600090E00E94C20260E086E10E943E0260E0D8
:1019700087E10E943E0260E088E10E943E0285E627
:1019800092E00E94180860E080E00E9409048BE564
:1019900092E00E94DB0760E089E00E9409048091E8
:1019A0003703909138030E94AB0761E080E00E940A
:1019B000090486E692E00E94DB0761E089E00E946C
:1019C000090482E090E0CECE87E492E00E945008C5
:1019D000882309F447C084E593E00E944F0461E046
:1019E00086E10E943E0261E087E10E943E0260E0E3
:1019F00088E10E943E0268EE73E080E090E00E9481
:101A0000C20260E086E10E943E0260E087E10E943F
:101A10003E0260E088E10E943E0285E692E00E947C
:101A2000180860E080E00E9409048BE592E00E94C3
:101A3000DB0760E089E00E94090480913503909102
:101A400036030E94AB0761E080E00E94090486E64D
:101A500092E00E94DB0761E089E00E94090483E0D4
:101A600090E080CE8DE492E00E945008882309F433
:101A700047C084E593E00E944F0460E086E10E9445
:101A80003E0260E087E10E943E0261E088E10E9440
:101A90003E0268EE73E080E090E00E94C20260E0E7
:101AA00086E10E943E0260E087E10E943E0260E023
:101AB00088E10E943E0285E692E00E94180860E0FC
:101AC00080E00E9409048BE592E00E94DB0760E061
:101AD00089E00E94090480913303909134030E94AD
:101AE000AB0761E080E00E94090486E692E00E9474
:101AF000DB0761E089E00E94090484E090E032CED7
:101B000084E592E00E945008882309F447C084E5E8
:101B100093E00E944F0461E086E10E943E0260E093
:101B200087E10E943E0261E088E10E943E0268EE89
:101B300073E080E090E00E94C20260E086E10E94D3
:101B40003E0260E087E10E943E0260E088E10E9480
:101B50003E0285E692E00E94180860E080E00E9464
:101B600009048BE592E00E94DB0760E089E00E94B7
:101B7000090480913103909132030E94AB0761E028
:101B800080E00E94090486E692E00E94DB0761E0A3
:101B900089E00E94090485E090E0E4CD64E670E00D
:101BA00080E090E00E94C20260E086E10E943E0276
:101BB00060E087E10E943E0260E088E10E943E0210
:101BC000DDCD80916D0390916E03009711F00C9420
:101BD000B00E0895A1E21A2EAA1BBB1BFD010DC079
:101BE000AA1FBB1FEE1FFF1FA217B307E407F507CD
:101BF00020F0A21BB30BE40BF50B661F771F881FA9
:101C0000991F1A9469F760957095809590959B013E
:101C1000AC01BD01CF010895EE0FFF1F881F8BBFE0
:101C20000790F691E02D19940F931F93CF93DF93B4
:101C30008230910510F482E090E0E0917503F0911C
:101C4000760330E020E0B0E0A0E0309799F4211571
:101C5000310509F44AC0281B390B24303105D8F569
:101C60008A819B816115710589F1FB0193838283D0
:101C7000FE0111C04081518102811381481759072B
:101C8000E0F04817590799F4109761F012960C93F9
:101C9000129713961C933296CF01DF91CF911F912B
:101CA0000F9108950093750310937603F4CF2115D7
:101CB000310551F04217530738F0A901DB019A01B1
:101CC000BD01DF01F801C1CFEF01F9CF9093760399
:101CD00080937503CDCFFE01E20FF31F81939193A3
:101CE0002250310939832883D7CF20917303309153
:101CF0007403232B41F420910202309103023093AC
:101D00007403209373032091000230910102211586
:101D1000310541F42DB73EB74091040250910502C0
:101D2000241B350BE0917303F0917403E217F30762
:101D3000A0F42E1B3F0B2817390778F0AC014E5F3B
:101D40005F4F2417350748F04E0F5F1F5093740301
:101D500040937303819391939FCFF0E0E0E09CCF99
:101D6000CF93DF930097E9F0FC0132971382128240
:101D7000A0917503B0917603ED0130E020E010975B
:101D8000A1F420813181820F931F20917303309140
:101D900074032817390709F061C0F0937403E093C6
:101DA0007303DF91CF910895EA01CE17DF07E8F5BD
:101DB0004A815B819E0141155105B1F7E901FB8321
:101DC000EA8349915991C40FD51FEC17FD0761F4BF
:101DD000808191810296840F951FE9019983888300
:101DE000828193819B838A83F0E0E0E012968D915B
:101DF0009C9113970097B9F52D913C911197CD01C6
:101E00000296820F931F2091730330917403281759
:101E1000390739F6309751F5109276031092750311
:101E2000B0937403A0937303BCCFD383C283408168
:101E30005181840F951FC817D90761F44E5F5F4F1A
:101E400088819981480F591F518340838A819B81E2
:101E5000938382832115310509F0B0CFF093760387
:101E6000E09375039ECFFD01DC01C0CF1382128287
:101E7000D7CF4F925F926F927F928F929F92AF9245
:101E8000BF92CF92DF92EF92FF920F931F93CF9367
:101E9000DF938C01009799F4CB01DF91CF911F91D3
:101EA0000F91FF90EF90DF90CF90BF90AF909F90F9
:101EB0008F907F906F905F904F900C94140EFC0168
:101EC000E60FF71F9C0122503109E217F30708F4CF
:101ED000AEC0D901CD91DC911197C617D70720F17B
:101EE000C530D10578F0CE0104978617970750F0DA
:101EF000C61BD70B2297C193D1936D937C93CF01CF
:101F00000E94B00EC801DF91CF911F910F91FF90F9
:101F1000EF90DF90CF90BF90AF909F908F907F9089
:101F20006F905F904F9008955B01AC1ABD0A4C0111
:101F30008C0E9D1EA0917503B0917603512C412CFF
:101F4000F12CE12C109731F580917303909174037B
:101F50008815990509F05CC04616570608F058C068
:101F60008091000290910102009741F48DB79EB7D5
:101F70004091040250910502841B950BE817F90764
:101F800008F055C0F0937403E0937303F901718373
:101F90006083B8CF8D919C91119712966C90129797
:101FA00013967C901397A815B90559F56C0142E07A
:101FB000C40ED11CCA14DB0420F1AC014A195B0920
:101FC000DA011296159780F0628273825183408302
:101FD000D9016D937C93E114F10471F0D70113964C
:101FE000FC93EE9312978ECF22968C0F9D1FF901D2
:101FF00091838083F301EFCFF0937603E093750331
:1020000081CF4816590608F42C017D01D3019ACFDF
:10201000CB010E94140E7C01009749F0AE01B8017B
:102020000E941F10C8010E94B00E87016BCF10E004
:1020300000E068CF81E090E0F8940C943810FB0148
:10204000DC0102C001900D9241505040D8F7089534
:10205000FB01DC018D91019080190110D9F3990BDE
:102060000895FB01DC0101900D920020E1F7089535
:1020700011E0CDE4D1E000E006C0802FFE010E9417
:102080000C0E2196011DCE34D10780E00807A9F778
:04209000F894FFCFF2
:1020940000007703800000401454004010500000FA
:1020A4000000B3038603DD045C037F036C035D035C
:1020B400000000004D06E80700000000F60381015F
:1020C400DD04DC044E06E2033406150632313031F9
:1020D400003130313032003530313033003130307E
:1020E4003130340033303031303500506171756532
:0E20F4007465733A200043616D696F6E0000E1
:00000001FF
