:100000000C944E010C947F010C947F010C947F01A1
:100010000C947F010C947F010C947F010C947F0160
:100020000C947F010C947F010C947F010C947F0150
:100030000C947F010C947F010C947F010C947F0140
:100040000C947F010C947F010C947F010C947F0130
:100050000C947F010C947F010C947F010C94930805
:100060000C947F010C947F010C947F010C947F0110
:100070000C947F010C947F010C947F010C947F0100
:100080000C947F010C947F010C947F010C947F01F0
:100090000C947F010C947F010C947F010C94DD087B
:1000A0000C947F010C947F010C947F010C947F01D0
:1000B0000C947F010C947F010C947F010C947F01C0
:1000C0000C947F010C947F010C947F010C947F01B0
:1000D0000C947F010C947F010C947F010C947F01A0
:1000E0000C947F010C945A030C94F6030C94EB01CE
:1000F0000C944B060C94D9040C94CC010C94010A7A
:100100000C94FF010C9403020C94F9010C94120658
:100110000C940C020C94CB0C0C944A060C94D8074B
:100120000C947F030C94E1010C94F5010C940D02E6
:100130000C9431060C945D030C94F1010C94E203D1
:100140000C94B3030C94DE010C946C030C945B03CD
:100150000C9486030C9481010C94E7010C94D20159
:100160000C9407020C94D6010C94DA010C94DA0476
:100170000C9411020C945C03000021002400270061
:100180002A002D00300033000101000004010701A6
:100190000A0100002200250028002B002E0031005B
:1001A000340002010000050108010B0100002000DD
:1001B0002300260029002C002F003200000100003F
:1001C00003010601090105050505070508080808DA
:1001D000020202020A0A08080404040401010101DF
:1001E00001010101030303030303030304070707DA
:1001F0000C0C0C0C0C0C0C0C02020202060606067F
:10020000060606060B0B0B0B0B0B0B0B010210204B
:10021000200808102040102040800201020108043C
:1002200002010102040810204080804020100804D0
:100230000201800402018040201008040201080429
:10024000020101020408102040800102040810206D
:10025000408000000A0B02090C0D0E080703040180
:10026000000000000000000000000000000000008E
:10027000000000000000000000000000000012115B
:10028000100000000000000000000000000000005E
:100290000000000000000000010ACB0C11241FBE6A
:1002A000CFEFD1E2DEBFCDBF00E00CBF23E0A8E678
:1002B000B2E001C01D92A537B207E1F712E0A0E05D
:1002C000B2E0E8E6FEE100E00BBF02C007900D924D
:1002D000A836B107D9F711E0CDE4D1E000E006C0BF
:1002E00021970109802FFE010E94F60CCC34D10722
:1002F00080E00807A9F70E949D0A0C94220F0C9435
:100300000000AF92BF92CF92DF92EF92FF920F93D5
:100310001F93CF93DF936C017B018B01040F151F9B
:10032000EB015E01AE18BF08C017D10759F0699103
:10033000D601ED91FC910190F081E02DC601199557
:10034000892B79F7C501DF91CF911F910F91FF9014
:10035000EF90DF90CF90BF90AF90089581508231A1
:1003600008F05AC0E82FF0E08827E654FE4F8F4F80
:100370000C94F60CDA01DE01CC01D201D6010C029C
:10038000E101E701EB01F101F501F901FF010302D0
:100390000C0207020D021102809180008F7780937A
:1003A00080000895809180008F7DF9CF809180003A
:1003B000877FF5CF84B58F7784BD089584B58F7D11
:1003C000FBCF8091B0008F778093B000089580912B
:1003D000B0008F7DF9CF809190008F77809390004F
:1003E0000895809190008F7DF9CF80919000877F54
:1003F000F5CF8091A0008F778093A0000895809121
:10040000A0008F7DF9CF8091A000877FF5CF8091EC
:1004100020018F77809320010895809120018F7DA6
:10042000F9CF80912001877FF5CFCF93DF93282FDD
:1004300030E0F901EE5AFD4F8491F901E45FFD4F80
:10044000D491F901EA53FE4FC491CC23A1F081115C
:100450000E94AE01EC2FF0E0EE0FFF1FE455FE4FBF
:10046000A591B491EC91ED2381E090E009F480E056
:10047000DF91CF91089580E090E0FACF1F93CF9362
:10048000DF93282F30E0F901EE5AFD4F8491F901F6
:10049000E45FFD4FD491F901EA53FE4FC491CC23A0
:1004A000A9F0162F81110E94AE01EC2FF0E0EE0FA3
:1004B000FF1FEE56FE4FA591B4918FB7F894EC91C3
:1004C000111108C0D095DE23DC938FBFDF91CF914F
:1004D0001F910895DE2BF8CFCF93DF9390E0FC01BE
:1004E000E45FFD4F24918A539E4FFC018491882341
:1004F000D1F090E0880F991FFC01E858FE4FA591BC
:10050000B491FC01EE56FE4FC591D49161110EC01D
:100510009FB7F8948C91E22FE0958E238C932881DD
:10052000E223E8839FBFDF91CF9108958FB7F894BE
:10053000EC91E22BEC938FBFF6CF3FB7F89480910C
:10054000270390912803A0912903B0912A0326B58F
:10055000A89B05C02F3F19F00196A11DB11D3FBFFB
:10056000BA2FA92F982F8827BC01CD01620F711DCA
:10057000811D911D42E0660F771F881F991F4A95C4
:10058000D1F708958F929F92AF92BF92CF92DF9250
:10059000EF92FF924B015C010E949D026B017C0176
:1005A0000E949D026C197D098E099F09683E734067
:1005B00081059105A8F321E0821A9108A108B108EC
:1005C00088EEC80E83E0D81EE11CF11C8114910452
:1005D000A104B10429F7FF90EF90DF90CF90BF9076
:1005E000AF909F908F9008952091D602260F3327C9
:1005F000331F21323105ECF42091FC02FC0190E024
:1006000080E0243069F082E00895A091D602219123
:10061000AC014C545D4FA40FB52FB11D2C93019626
:10062000861798F38091D602680F6093D60280E017
:10063000089581E008951092FC0281E08093FE020B
:100640001092FD0261E084E10E943E0261E085E1DA
:100650000E943E02E9EBF0E080818E7F8083808102
:100660008D7F808388E48093B80085E48093BC000C
:100670000895CF93DF9391E09093B3028823B9F06C
:10068000C091B800D091BA008091BC008A7B809361
:10069000BC0060E084E10E943E0260E085E10E94CF
:1006A0003E020E941B03D093BA00C093B800DF91B2
:1006B000CF910895089508950895E091AB02809137
:1006C000AA02E81730F4F0E0E657FD4F808190E091
:1006D00008958FEF9FEF08959091AB028091AA0249
:1006E0002FEF3FEF981748F4E92FF0E0E657FD4F62
:1006F000208130E09F5F9093AB02C9010895809103
:10070000AA029091AB02891B990B0895CF92DF92B8
:10071000EF92FF920F931F93CF93DF937C01CB0156
:100720008A0120918902222389F0EB016B01C40E1A
:10073000D51ECC15DD0569F06991D701ED91FC91CD
:100740000190F081E02DC7011995F3CF642F0E942D
:10075000F402C801DF91CF911F910F91FF90EF90AC
:10076000DF90CF900895CF93DF931F92CDB7DEB780
:100770006983209189022223F9F02091AC02203272
:1007800058F021E030E0FC013383228390E080E0E8
:100790000F90DF91CF9108958091AD02E82FF0E0A6
:1007A000E759FD4F998190838F5F8093AD028093CD
:1007B000AC0281E090E0ECCF61E0CE0101960E94B6
:1007C000F402F7CF21E001C0220F6A95EAF7DC01BD
:1007D0001C962C931C971A965C934E931997ED9147
:1007E000FC910484F585E02D60E01994DC01ED9125
:1007F000FC910684F785E02D41E0199581E090E0B9
:100800000895DC01ED91FC910684F785E02D40E030
:1008100019940F931F93CF93DF9300D000D01F92B2
:100820001F92CDB7DEB7009106021091070220910A
:100830000802309109020D831E832F8338870091AF
:100840000A0210910B0220910C0230910D020983D3
:100850001A832B833C8390915903691710F06FEF33
:10086000690F262F30E040915A032C0F3D1FF901EC
:10087000403199F4943089F46181680F606882E5B1
:1008800093E028960FB6F894DEBF0FBECDBFDF9180
:10089000CF911F910F910C9401046581EECF0F93BE
:1008A0001F93CF93DF93EC01423018F08C81886066
:1008B0008C834F836887222329F0413019F48C817F
:1008C00084608C8364E670E080E090E00E94C20265
:1008D0006C8164FD55C0E881F9810684F785E02DBF
:1008E00042E063E0CE0119950BE416E4C8010197DC
:1008F000F1F7E881F9810684F785E02D42E063E0B5
:10090000CE011995C8010197F1F7E881F9810684B4
:10091000F785E02D42E063E0CE01199583E592E092
:100920000197F1F7E881F9810684F785E02D42E02F
:1009300062E0CE0119956C816062CE010E940104D3
:1009400084E08D836CE0CE010E94010461E0CE0161
:100950000E9401048BE39FE10197F1F782E08E830F
:1009600066E0CE010E940104E881F9810484F585E6
:10097000E02D6FEFCE01DF91CF911F910F91199470
:100980006062CE010E9401048BE496E40197F1F7C6
:100990006C816062CE010E94010483E592E00197C0
:1009A000F1F76C816062CE010E940104C4CF08950A
:1009B0000895089590E080E00895CF92DF92EF923D
:1009C000FF920F931F93CF93DF93FC012381222388
:1009D00009F4F1C0262F6181609562236083C28192
:1009E00081E080938902C09368021092AD02109258
:1009F000AC0289E393E00E94B303D091AC0221E002
:100A0000D13208F09AC00E949D026B017C01809156
:100A1000FC0281116CC082E08093FC0281E0809333
:100A2000FE028FEF8093FB0210922003D0931F03EE
:100A3000A9E6B2E0EFEFF2E080E0D81394C01092A4
:100A4000210380912103CC0FC82BC09321038091F7
:100A5000FD02813009F08BC01092FD020E949D02C0
:100A60006B017C01809121038093BB008091AF02D8
:100A70009091B002A091B102B091B202892B8A2B61
:100A80008B2BA1F00E949D020091AF021091B00249
:100A90002091B1023091B2026C197D098E099F0933
:100AA000061717072807390708F442C08091BC00D1
:100AB00083FDD8CF85EC8093BC000E949D026B0122
:100AC0007C018091FC02823009F453C08091FB02CA
:100AD00020E08F3F91F18091FB0222E0803269F1AA
:100AE0008091FB0224E0803341F523E026C0809111
:100AF000AF029091B002A091B102B091B202892BE5
:100B00008A2B8B2B09F483CF0E949D020091AF02A8
:100B10001091B0022091B1023091B2026C197D099E
:100B20008E099F09061717072807390708F06FCFA6
:100B30008091AE020E94390325E01092AD0210921E
:100B4000AC021092890230E081E090E0232B11F09A
:100B500090E080E0DF91CF911F910F91FF90EF9097
:100B6000DF90CF9008959D9191938F5F66CF85EE32
:100B7000A2CF8091AF029091B002A091B102B0914A
:100B8000B202892B8A2B8B2B09F49BCF0E949D02EA
:100B90000091AF021091B0022091B1023091B202E7
:100BA0006C197D098E099F09061717072807390751
:100BB00008F087CFBDCF30E020E0C6CFEF92FF92A4
:100BC0000F931F93CF938C01FC0184E0C0E0262F8C
:100BD00030E060FF02C09589C92BB9017595679512
:100BE000815031968111F3CF413011F4F8014489DD
:100BF000F8016585C62BC42B7801FEE0EF0EF11CD1
:100C0000F80162896C2BC7010E94DD04F80162893A
:100C100060956C23C701CF911F910F91FF90EF90CA
:100C20000C94DD040F931F93CF93DF93062F0F7067
:100C3000423041F440E0602FDF91CF911F910F913E
:100C40000C94DE05142FEC0170E084E07595679537
:100C50008A95E1F7CE010E94DE05412F602FCE017B
:100C6000EBCFFC0184858823A1F0218532852115F5
:100C7000310521F4611107C0158606C02130310508
:100C8000D9F76111F9CF85876585CF010E960C9450
:100C9000DD04089508954F925F926F927F928F9234
:100CA0009F92AF92BF92EF92FF920F931F93CF93B9
:100CB000DF93EC01062FF42EE22E8B85888B1092A9
:100CC000AB021092AA021092AD021092AC020E94E6
:100CD0001B038AE593E09093D5028093D4028BE5C1
:100CE00093E09093D9028093D80218890E949D02C4
:100CF0004B015C018091FC02811164C081E0809312
:100D0000FC028093FE029FEF9093FB02109220035F
:100D100010921F038093210380912103110F182B40
:100D2000109321038091FD02813009F09DC0109243
:100D3000FD020E949D024B015C0180912103809382
:100D4000BB008091AF029091B002A091B102B0912E
:100D5000B202892B8A2B8B2BA1F00E949D0240901E
:100D6000AF025090B0026090B1027090B202681968
:100D700079098A099B09461657066806790608F418
:100D800042C08091BC0083FDD8CF85EC8093BC002D
:100D90000E949D024B015C018091FC02813009F4AC
:100DA00065C080912003811183C080912003EFEF03
:100DB000F2E0AAE8B2E090E0981751F121912D936A
:100DC0009F5FFACF8091AF029091B002A091B102E3
:100DD000B091B202892B8A2B8B2B09F48BCF0E9406
:100DE0009D024090AF025090B0026090B1027090AE
:100DF000B202681979098A099B09461657066806DE
:100E0000790608F077CF8091AE020E94390380E026
:100E10001092AB028093AA0291E0811101C090E090
:100E2000998B89E393E00E946C038E8789898823DC
:100E300039F01F861C8260E0CE010E960E94DD0410
:100E40002E2D4F2D602FCE01DF91CF911F910F914D
:100E5000FF90EF90BF90AF909F908F907F906F909A
:100E60005F904F900C944F0485EE90CF8091AF022D
:100E70009091B002A091B102B091B202892B8A2B5D
:100E80008B2B09F489CF0E949D024090AF025090B5
:100E9000B0026090B1027090B202681979098A09B3
:100EA0009B09461657066806790608F075CFABCF42
:100EB00081E07DCF8F929F92AF92BF920F931F934D
:100EC000CF93DF93CDB7DEB7A1970FB6F894DEBF0F
:100ED0000FBECDBF19A2423008F44AE08E010F5D6B
:100EE0001F4F842E912CB12CA12CA50194010E949E
:100EF000D40CE62FB901CA01EA3044F5E05DD8010F
:100F0000EE938D01232B242B252B79F790E080E0A5
:100F1000109769F0FD0101900020E9F73197AF01CA
:100F20004A1B5B0BBD0182E593E00E948101A19603
:100F30000FB6F894DEBF0FBECDBFDF91CF911F91EA
:100F40000F91BF90AF909F908F900895E95CD7CF9D
:100F5000CF92DF92EF92FF92CF93DF936C01990FC4
:100F6000EE08FF08F7FE19C06DE282E593E00E94EB
:100F7000F603EC0166277727CB016C197D098E09F2
:100F80009F094AE00E945A078C0F9D1FDF91CF9165
:100F9000FF90EF90DF90CF9008954AE0C701B6012F
:100FA000DF91CF91FF90EF90DF90CF900C945A0794
:100FB0000C949A0DCF93DF93EC0180916B03909189
:100FC0006C03009759F020916D0330916E032C173C
:100FD0003D0720F081E0DF91CF910895BE016F5F62
:100FE0007F4F0E94230E009789F090936C038093AB
:100FF0006B03D0936E03C0936D0320916F03309108
:101000007003232B39F7FC011082E4CF80E0E3CF9B
:101010000F931F93CF93DF938C01EC010990002075
:10102000E9F72197C81BD90BCE010E94DA0720915E
:101030006B0330916C03811117C02115310519F034
:10104000C9010E949A0D10926C0310926B031092CA
:10105000700310926F0310926E0310926D03DF9174
:10106000CF911F910F910895D0937003C0936F0398
:10107000B801C901DF91CF911F910F910C941B0F03
:1010800020916F0330917003232B39F421E0FC0190
:101090008081882361F020E00AC0BC0180916B034D
:1010A00090916C030E94120F21E0892BA1F7822FEF
:1010B00008950E94040F85ED8093BC008091AF02DB
:1010C0009091B002A091B102B091B2020796A11D19
:1010D000B11D23E0B695A795979587952A95D1F7E9
:1010E0002091BC0024FD03C01092FC0208954091A1
:1010F000AF025091B0026091B1027091B202452BE3
:10110000462B472B69F30097A105B10541F02AE270
:101110002A95F1F700C00197A109B109E1CF8091AB
:10112000AE020C9439031F920F920FB60F92112446
:101130002F933F938F939F93AF93BF9380912303FC
:1011400090912403A0912503B091260330912203AE
:1011500023E0230F2D3758F50196A11DB11D2093D3
:1011600022038093230390932403A0932503B09339
:1011700026038091270390912803A0912903B09121
:101180002A030196A11DB11D809327039093280384
:10119000A0932903B0932A03BF91AF919F918F91A0
:1011A0003F912F910F900FBE0F901F90189526E83A
:1011B000230F0296A11DB11DD2CF1F920F920FB621
:1011C0000F9211240BB60F922F933F934F935F937F
:1011D0006F937F938F939F93AF93BF93EF93FF93FF
:1011E0008091B900887F803609F44DC008F040C076
:1011F000883209F4A9C028F5803109F49DC0C8F4EB
:10120000882309F4FBC0883009F496C0FF91EF9160
:10121000BF91AF919F918F917F916F915F914F910E
:101220003F912F910F900BBE0F900FBE0F901F900C
:101230001895883109F488C0803241F78093FB0209
:1012400014C0803409F49DC040F48033B9F388336E
:10125000E9F68093FB0285ECB0C0803509F485C0C7
:10126000883509F496C0883489F60E945B08CECF91
:10127000883909F48CC038F5883729F050F488365D
:1012800011F0803719F683E08093FC021092FA0285
:1012900057C0883809F47BC0803919F0803809F0CC
:1012A000B5CF8091FA02803208F071C0E091FA0265
:1012B00081E08E0F8093FA028091BB00F0E0E6524D
:1012C000FD4F80833DC0803B39F0E0F4803A09F463
:1012D00079C0883A09F09ACF84E08093FC0210929A
:1012E000D7021092D602E091D402F091D50219955E
:1012F0008091D60281110FC081E08093D6021092B6
:10130000B40209C0803C09F4A6CF883C09F4A3CFFD
:10131000883B09F07BCFE091D70281E08E0F80936C
:10132000D702F0E0EC54FD4F80818093BB00909198
:10133000D7028091D60229C0809121038093BB00FF
:1013400085EC8093BC0062CF9091200380911F03B5
:10135000981758F5E091200381E08E0F80932003C9
:10136000F0E0E150FD4F8081E9CFE091200381E082
:101370008E0F809320038091BB00F0E0E150FD4F81
:1013800080839091200380911F039817C8F285E80D
:10139000D8CFE091200381E08E0F809320038091CD
:1013A000BB00F0E0E150FD4F80838091FE0281118F
:1013B0005CCF81E08093FD0284EA8093BC001092B0
:1013C000FC0224CF85EC8093BC001092FC0280913B
:1013D000FA02803230F4E091FA02F0E0E652FD4F7A
:1013E00010826091FA0270E0E091D802F091D90287
:1013F0008AED92E019951092FA0208CF1092FB0242
:1014000034CF10923C0310923B0388EE93E0A0E0AF
:10141000B0E080933D0390933E03A0933F03B093CD
:10142000400382E192E090933A0380933903109253
:101430006C0310926B0310926E0310926D03109266
:10144000700310926F0390E080E00E94DA07209111
:101450006B0330916C03811166C02115310519F0C1
:10146000C9010E949A0D10926C0310926B031092A6
:10147000700310926F0310926E0310926D0310921E
:101480005503109254038CE292E09093530380939F
:101490005203109262038FEF8093610310926003F6
:1014A0001092630380E280935D0310925E031092BA
:1014B0005F0310925C0310925B0394E090936403CB
:1014C00092E09093650391E09093660390E190938E
:1014D00067038093680380E48093690380E88093C6
:1014E0006A0350E040E063E082E593E00E94E2039B
:1014F00084E292E0909346038093450310924A035E
:1015000010924B0310924C0310924D0380E090E038
:10151000A0E8BFE380934E0390934F03A093500342
:10152000B093510308951092700310926F036CE40E
:1015300072E0C9010E941B0FA2CF789484B582602B
:1015400084BD84B5816084BD85B5826085BD85B567
:10155000816085BD80916E00816080936E001092E5
:101560008100809181008260809381008091810060
:1015700081608093810080918000816080938000F1
:101580008091B10084608093B1008091B00081604F
:101590008093B0008091910082608093910080914F
:1015A0009100816080939100809190008160809390
:1015B00090008091A10082608093A1008091A100A1
:1015C00081608093A1008091A00081608093A00041
:1015D00080912101826080932101809121018160AD
:1015E000809321018091200181608093200180916E
:1015F0007A00846080937A0080917A008260809380
:101600007A0080917A00816080937A0080917A00DC
:10161000806880937A001092C10020E044E060E18D
:1016200082E593E00E944B066FEF82E593E00E9413
:10163000310661E086E10E946C0261E087E10E9470
:101640006C0261E088E10E946C02C9E160E08C2FCD
:101650000E946C02CF5FCF31C9F7DFE161E08D2FCF
:101660000E946C02DF5FD432C9F761E08C2F0E94C8
:101670003E02CF5FC432C9F7C0E0D0E080913703AB
:1016800090913803893C9105CCF18091350390917C
:1016900036030196909336038093350310923803F6
:1016A0001092370360E080E00E94090444E050E0BB
:1016B0006CE372E082E593E00E94810160E085E0E6
:1016C0000E94090480913703909138030E94A80773
:1016D00061E080E00E94090446E050E061E472E0CD
:1016E00082E593E00E94810161E089E00E940904A3
:1016F00080913503909136030E94A80789E10E94EA
:101700001502019709F0B9C088E492E00E94080828
:1017100080913303909134030A969093340380931D
:10172000330388E492E00E944008882309F4F6C05D
:1017300061E086E10E943E0260E087E10E943E0295
:1017400060E088E10E943E0268EE73E080E090E095
:101750000E94C20260E086E10E943E0260E087E1F2
:101760000E943E0260E088E10E943E028CE492E02A
:101770000E9408088091330390913403843F914084
:1017800091F4109234031092330360E08FE10E94D1
:101790006C0260E177E280E090E00E94C20261E0CA
:1017A0008FE10E946C028091310390913203843F5B
:1017B000914091F4109232031092310360E080E284
:1017C0000E946C0260E177E280E090E00E94C20239
:1017D00061E080E20E946C0280912F0390913003BF
:1017E0008639910591F41092300310922F0360E036
:1017F00081E20E946C0260E177E280E090E00E946A
:10180000C20261E081E20E946C0280912D039091FE
:101810002E038639910591F410922E0310922D0318
:1018200060E082E20E946C0260E177E280E090E09A
:101830000E94C20261E082E20E946C0280912B034E
:1018400090912C038436910591F410922C03109200
:101850002B0360E083E20E946C0260E177E280E0AB
:1018600090E00E94C20261E083E20E946C02209735
:1018700009F404CF0E94000001CF8AE10E94150202
:10188000019771F48DE492E00E9408088091310381
:10189000909132030A96909332038093310341CFA3
:1018A0008BE10E941502019771F483E592E00E949A
:1018B000080880912F03909130030A96909330038B
:1018C00080932F032ECF8DE10E941502019771F4B2
:1018D00089E592E00E94080880912D0390912E03E3
:1018E0000A9690932E0380932D031BCF8EE10E94C6
:1018F0001502019771F480E692E00E940808809139
:101900002B0390912C030A9690932C0380932B0326
:1019100008CF8CE492E00E94080803CF8DE492E0A7
:101920000E944008882331F060E086E10E943E0278
:1019300061E003CF83E592E00E94400861E08111FD
:10194000F4CF89E592E00E94400860E0811107C071
:1019500080E692E00E944008882351F061E086E131
:101960000E943E0260E087E10E943E0261E0E9CE13
:1019700064E670E080E090E00E94C20260E086E1F0
:101980000E943E0260E087E10E943E0260E088E142
:101990000E943E02EFCE80916B0390916C03009702
:1019A00011F00C949A0D0895A1E21A2EAA1BBB1BEC
:1019B000FD010DC0AA1FBB1FEE1FFF1FA217B3071B
:1019C000E407F50720F0A21BB30BE40BF50B661F31
:1019D000771F881F991F1A9469F7609570958095F5
:1019E00090959B01AC01BD01CF010895EE0FFF1F43
:1019F000881F8BBF0790F691E02D19940F931F93CA
:101A0000CF93DF938230910510F482E090E0E09173
:101A10007303F091740330E020E0B0E0A0E0309771
:101A200099F42115310509F44AC0281B390B2430DB
:101A30003105D8F58A819B816115710589F1FB011A
:101A400093838283FE0111C0408151810281138101
:101A500048175907E0F04817590799F4109761F0B3
:101A600012960C93129713961C933296CF01DF9126
:101A7000CF911F910F9108950093730310937403F6
:101A8000F4CF2115310551F04217530738F0A90161
:101A9000DB019A01BD01DF01F801C1CFEF01F9CFF0
:101AA0009093740380937303CDCFFE01E20FF31F75
:101AB000819391932250310939832883D7CF209184
:101AC000710330917203232B41F420910202309173
:101AD000030230937203209371032091000230912E
:101AE00001022115310541F42DB73EB740910402A2
:101AF00050910502241B350BE0917103F0917203A4
:101B0000E217F307A0F42E1B3F0B2817390778F0D4
:101B1000AC014E5F5F4F2417350748F04E0F5F1F33
:101B20005093720340937103819391939FCFF0E0A0
:101B3000E0E09CCFCF93DF930097E9F0FC01329770
:101B400013821282A0917303B0917403ED0130E00F
:101B500020E01097A1F420813181820F931F209102
:101B60007103309172032817390709F061C0F093AF
:101B70007203E0937103DF91CF910895EA01CE17CC
:101B8000DF07E8F54A815B819E0141155105B1F7F8
:101B9000E901FB83EA8349915991C40FD51FEC17E2
:101BA000FD0761F4808191810296840F951FE90100
:101BB00099838883828193819B838A83F0E0E0E02C
:101BC00012968D919C9113970097B9F52D913C91A8
:101BD0001197CD010296820F931F209171033091CE
:101BE00072032817390739F6309751F510927403AC
:101BF00010927303B0937203A0937103BCCFD3838D
:101C0000C28340815181840F951FC817D90761F4A1
:101C10004E5F5F4F88819981480F591F51834083E0
:101C20008A819B81938382832115310509F0B0CF8E
:101C3000F0937403E09373039ECFFD01DC01C0CFEA
:101C400013821282D7CF4F925F926F927F928F92C0
:101C50009F92AF92BF92CF92DF92EF92FF920F933B
:101C60001F93CF93DF938C01009799F4CB01DF9101
:101C7000CF911F910F91FF90EF90DF90CF90BF9089
:101C8000AF909F908F907F906F905F904F900C944B
:101C9000FE0CFC01E60FF71F9C0122503109E217F0
:101CA000F30708F4AEC0D901CD91DC911197C617A6
:101CB000D70720F1C530D10578F0CE0104978617FB
:101CC000970750F0C61BD70B2297C193D1936D9302
:101CD0007C93CF010E949A0DC801DF91CF911F9193
:101CE0000F91FF90EF90DF90CF90BF90AF909F90BB
:101CF0008F907F906F905F904F9008955B01AC1A2A
:101D0000BD0A4C018C0E9D1EA0917303B09174030B
:101D1000512C412CF12CE12C109731F5809171035D
:101D2000909172038815990509F05CC04616570614
:101D300008F058C08091000290910102009741F490
:101D40008DB79EB74091040250910502841B950BFC
:101D5000E817F90708F055C0F0937203E093710398
:101D6000F90171836083B8CF8D919C911197129680
:101D70006C90129713967C901397A815B90559F596
:101D80006C0142E0C40ED11CCA14DB0420F1AC018A
:101D90004A195B09DA011296159780F06282738204
:101DA00051834083D9016D937C93E114F10471F068
:101DB000D7011396FC93EE9312978ECF22968C0F39
:101DC0009D1FF90191838083F301EFCFF09374039A
:101DD000E093730381CF4816590608F42C017D0166
:101DE000D3019ACFCB010E94FE0C7C01009749F0F1
:101DF000AE01B8010E94090FC8010E949A0D870127
:101E00006BCF10E000E068CF81E090E0F8940C9494
:101E1000220FFB01DC0102C001900D9241505040A5
:101E2000D8F70895FB01DC018D9101908019011014
:101E3000D9F3990B0895FB01DC0101900D9200206C
:101E4000E1F7089511E0CDE4D1E000E006C0802F75
:101E5000FE010E94F60C2196011DCE34D10780E0D0
:081E60000807A9F7F894FFCF71
:101E6800000075038000004014540040105000002A
:101E78000000B3038603DA045C037F036C035D038D
:101E8800000000004A06D80700000000F6038101A0
:101E9800DA04D9044B06E203310612065065736F63
:101EA8000043616D696F6E0032313031003130317D
:101EB8003032003530313033003130303130340099
:081EC8003330303130350000E9
:00000001FF
